{"abi":[{"inputs":[{"internalType":"uint256","name":"minimum","type":"uint256"},{"internalType":"address","name":"creator","type":"address"},{"internalType":"string","name":"desc","type":"string"}],"stateMutability":"nonpayable","type":"constructor"},{"inputs":[{"internalType":"uint256","name":"index","type":"uint256"}],"name":"approveRequest","outputs":[],"stateMutability":"nonpayable","type":"function"},{"inputs":[{"internalType":"address","name":"","type":"address"}],"name":"approvers","outputs":[{"internalType":"bool","name":"","type":"bool"}],"stateMutability":"view","type":"function"},{"inputs":[],"name":"approversCount","outputs":[{"internalType":"uint256","name":"","type":"uint256"}],"stateMutability":"view","type":"function"},{"inputs":[],"name":"contribute","outputs":[],"stateMutability":"payable","type":"function"},{"inputs":[{"internalType":"string","name":"description","type":"string"},{"internalType":"uint256","name":"value","type":"uint256"},{"internalType":"address","name":"recipient","type":"address"}],"name":"createRequest","outputs":[],"stateMutability":"nonpayable","type":"function"},{"inputs":[],"name":"description","outputs":[{"internalType":"string","name":"","type":"string"}],"stateMutability":"view","type":"function"},{"inputs":[{"internalType":"uint256","name":"index","type":"uint256"}],"name":"finalizeRequest","outputs":[],"stateMutability":"nonpayable","type":"function"},{"inputs":[],"name":"getDetails","outputs":[{"internalType":"uint256","name":"","type":"uint256"},{"internalType":"uint256","name":"","type":"uint256"},{"internalType":"uint256","name":"","type":"uint256"},{"internalType":"uint256","name":"","type":"uint256"},{"internalType":"address","name":"","type":"address"}],"stateMutability":"view","type":"function"},{"inputs":[],"name":"getRequestCount","outputs":[{"internalType":"uint256","name":"","type":"uint256"}],"stateMutability":"view","type":"function"},{"inputs":[],"name":"manager","outputs":[{"internalType":"address","name":"","type":"address"}],"stateMutability":"view","type":"function"},{"inputs":[],"name":"minimumContribution","outputs":[{"internalType":"uint256","name":"","type":"uint256"}],"stateMutability":"view","type":"function"},{"inputs":[{"internalType":"uint256","name":"","type":"uint256"}],"name":"requests","outputs":[{"internalType":"string","name":"description","type":"string"},{"internalType":"uint256","name":"value","type":"uint256"},{"internalType":"address","name":"recipient","type":"address"},{"internalType":"bool","name":"complete","type":"bool"},{"internalType":"uint256","name":"approvalCount","type":"uint256"}],"stateMutability":"view","type":"function"}],"devdoc":{"kind":"dev","methods":{},"version":1},"evm":{"assembly":"    /* \"Campaign.sol\":537:2754  contract Campaign {... */\n  mstore(0x40, 0x80)\n    /* \"Campaign.sol\":1051:1215  constructor(uint minimum, address creator, string memory desc) {... */\n  callvalue\n  dup1\n  iszero\n  tag_1\n  jumpi\n  0x00\n  dup1\n  revert\ntag_1:\n  pop\n  mload(0x40)\n  sub(codesize, bytecodeSize)\n  dup1\n  bytecodeSize\n  dup4\n  codecopy\n  dup2\n  dup2\n  add\n  0x40\n  mstore\n  dup2\n  add\n  swap1\n  tag_2\n  swap2\n  swap1\n  tag_3\n  jump\t// in\ntag_2:\n    /* \"Campaign.sol\":1134:1141  creator */\n  dup2\n    /* \"Campaign.sol\":1124:1131  manager */\n  0x02\n  0x00\n    /* \"Campaign.sol\":1124:1141  manager = creator */\n  0x0100\n  exp\n  dup2\n  sload\n  dup2\n  0xffffffffffffffffffffffffffffffffffffffff\n  mul\n  not\n  and\n  swap1\n  dup4\n  0xffffffffffffffffffffffffffffffffffffffff\n  and\n  mul\n  or\n  swap1\n  sstore\n  pop\n    /* \"Campaign.sol\":1173:1180  minimum */\n  dup3\n    /* \"Campaign.sol\":1151:1170  minimumContribution */\n  0x03\n    /* \"Campaign.sol\":1151:1180  minimumContribution = minimum */\n  dup2\n  swap1\n  sstore\n  pop\n    /* \"Campaign.sol\":1204:1208  desc */\n  dup1\n    /* \"Campaign.sol\":1190:1201  description */\n  0x00\n    /* \"Campaign.sol\":1190:1208  description = desc */\n  swap1\n  dup1\n  mload\n  swap1\n  0x20\n  add\n  swap1\n  tag_6\n  swap3\n  swap2\n  swap1\n  tag_7\n  jump\t// in\ntag_6:\n  pop\n    /* \"Campaign.sol\":1051:1215  constructor(uint minimum, address creator, string memory desc) {... */\n  pop\n  pop\n  pop\n    /* \"Campaign.sol\":537:2754  contract Campaign {... */\n  jump(tag_8)\ntag_7:\n  dup3\n  dup1\n  sload\n  tag_9\n  swap1\n  tag_10\n  jump\t// in\ntag_9:\n  swap1\n  0x00\n  mstore\n  keccak256(0x00, 0x20)\n  swap1\n  0x1f\n  add\n  0x20\n  swap1\n  div\n  dup2\n  add\n  swap3\n  dup3\n  tag_12\n  jumpi\n  0x00\n  dup6\n  sstore\n  jump(tag_11)\ntag_12:\n  dup3\n  0x1f\n  lt\n  tag_13\n  jumpi\n  dup1\n  mload\n  not(0xff)\n  and\n  dup4\n  dup1\n  add\n  or\n  dup6\n  sstore\n  jump(tag_11)\ntag_13:\n  dup3\n  dup1\n  add\n  0x01\n  add\n  dup6\n  sstore\n  dup3\n  iszero\n  tag_11\n  jumpi\n  swap2\n  dup3\n  add\ntag_14:\n  dup3\n  dup2\n  gt\n  iszero\n  tag_15\n  jumpi\n  dup3\n  mload\n  dup3\n  sstore\n  swap2\n  0x20\n  add\n  swap2\n  swap1\n  0x01\n  add\n  swap1\n  jump(tag_14)\ntag_15:\ntag_11:\n  pop\n  swap1\n  pop\n  tag_16\n  swap2\n  swap1\n  tag_17\n  jump\t// in\ntag_16:\n  pop\n  swap1\n  jump\t// out\ntag_17:\ntag_18:\n  dup1\n  dup3\n  gt\n  iszero\n  tag_19\n  jumpi\n  0x00\n  dup2\n  0x00\n  swap1\n  sstore\n  pop\n  0x01\n  add\n  jump(tag_18)\ntag_19:\n  pop\n  swap1\n  jump\t// out\n    /* \"#utility.yul\":7:82   */\ntag_20:\n    /* \"#utility.yul\":40:46   */\n  0x00\n    /* \"#utility.yul\":73:75   */\n  0x40\n    /* \"#utility.yul\":67:76   */\n  mload\n    /* \"#utility.yul\":57:76   */\n  swap1\n  pop\n    /* \"#utility.yul\":7:82   */\n  swap1\n  jump\t// out\n    /* \"#utility.yul\":88:205   */\ntag_21:\n    /* \"#utility.yul\":197:198   */\n  0x00\n    /* \"#utility.yul\":194:195   */\n  dup1\n    /* \"#utility.yul\":187:199   */\n  revert\n    /* \"#utility.yul\":211:328   */\ntag_22:\n    /* \"#utility.yul\":320:321   */\n  0x00\n    /* \"#utility.yul\":317:318   */\n  dup1\n    /* \"#utility.yul\":310:322   */\n  revert\n    /* \"#utility.yul\":334:411   */\ntag_23:\n    /* \"#utility.yul\":371:378   */\n  0x00\n    /* \"#utility.yul\":400:405   */\n  dup2\n    /* \"#utility.yul\":389:405   */\n  swap1\n  pop\n    /* \"#utility.yul\":334:411   */\n  swap2\n  swap1\n  pop\n  jump\t// out\n    /* \"#utility.yul\":417:539   */\ntag_24:\n    /* \"#utility.yul\":490:514   */\n  tag_47\n    /* \"#utility.yul\":508:513   */\n  dup2\n    /* \"#utility.yul\":490:514   */\n  tag_23\n  jump\t// in\ntag_47:\n    /* \"#utility.yul\":483:488   */\n  dup2\n    /* \"#utility.yul\":480:515   */\n  eq\n    /* \"#utility.yul\":470:533   */\n  tag_48\n  jumpi\n    /* \"#utility.yul\":529:530   */\n  0x00\n    /* \"#utility.yul\":526:527   */\n  dup1\n    /* \"#utility.yul\":519:531   */\n  revert\n    /* \"#utility.yul\":470:533   */\ntag_48:\n    /* \"#utility.yul\":417:539   */\n  pop\n  jump\t// out\n    /* \"#utility.yul\":545:688   */\ntag_25:\n    /* \"#utility.yul\":602:607   */\n  0x00\n    /* \"#utility.yul\":633:639   */\n  dup2\n    /* \"#utility.yul\":627:640   */\n  mload\n    /* \"#utility.yul\":618:640   */\n  swap1\n  pop\n    /* \"#utility.yul\":649:682   */\n  tag_50\n    /* \"#utility.yul\":676:681   */\n  dup2\n    /* \"#utility.yul\":649:682   */\n  tag_24\n  jump\t// in\ntag_50:\n    /* \"#utility.yul\":545:688   */\n  swap3\n  swap2\n  pop\n  pop\n  jump\t// out\n    /* \"#utility.yul\":694:820   */\ntag_26:\n    /* \"#utility.yul\":731:738   */\n  0x00\n    /* \"#utility.yul\":771:813   */\n  0xffffffffffffffffffffffffffffffffffffffff\n    /* \"#utility.yul\":764:769   */\n  dup3\n    /* \"#utility.yul\":760:814   */\n  and\n    /* \"#utility.yul\":749:814   */\n  swap1\n  pop\n    /* \"#utility.yul\":694:820   */\n  swap2\n  swap1\n  pop\n  jump\t// out\n    /* \"#utility.yul\":826:922   */\ntag_27:\n    /* \"#utility.yul\":863:870   */\n  0x00\n    /* \"#utility.yul\":892:916   */\n  tag_53\n    /* \"#utility.yul\":910:915   */\n  dup3\n    /* \"#utility.yul\":892:916   */\n  tag_26\n  jump\t// in\ntag_53:\n    /* \"#utility.yul\":881:916   */\n  swap1\n  pop\n    /* \"#utility.yul\":826:922   */\n  swap2\n  swap1\n  pop\n  jump\t// out\n    /* \"#utility.yul\":928:1050   */\ntag_28:\n    /* \"#utility.yul\":1001:1025   */\n  tag_55\n    /* \"#utility.yul\":1019:1024   */\n  dup2\n    /* \"#utility.yul\":1001:1025   */\n  tag_27\n  jump\t// in\ntag_55:\n    /* \"#utility.yul\":994:999   */\n  dup2\n    /* \"#utility.yul\":991:1026   */\n  eq\n    /* \"#utility.yul\":981:1044   */\n  tag_56\n  jumpi\n    /* \"#utility.yul\":1040:1041   */\n  0x00\n    /* \"#utility.yul\":1037:1038   */\n  dup1\n    /* \"#utility.yul\":1030:1042   */\n  revert\n    /* \"#utility.yul\":981:1044   */\ntag_56:\n    /* \"#utility.yul\":928:1050   */\n  pop\n  jump\t// out\n    /* \"#utility.yul\":1056:1199   */\ntag_29:\n    /* \"#utility.yul\":1113:1118   */\n  0x00\n    /* \"#utility.yul\":1144:1150   */\n  dup2\n    /* \"#utility.yul\":1138:1151   */\n  mload\n    /* \"#utility.yul\":1129:1151   */\n  swap1\n  pop\n    /* \"#utility.yul\":1160:1193   */\n  tag_58\n    /* \"#utility.yul\":1187:1192   */\n  dup2\n    /* \"#utility.yul\":1160:1193   */\n  tag_28\n  jump\t// in\ntag_58:\n    /* \"#utility.yul\":1056:1199   */\n  swap3\n  swap2\n  pop\n  pop\n  jump\t// out\n    /* \"#utility.yul\":1205:1322   */\ntag_30:\n    /* \"#utility.yul\":1314:1315   */\n  0x00\n    /* \"#utility.yul\":1311:1312   */\n  dup1\n    /* \"#utility.yul\":1304:1316   */\n  revert\n    /* \"#utility.yul\":1328:1445   */\ntag_31:\n    /* \"#utility.yul\":1437:1438   */\n  0x00\n    /* \"#utility.yul\":1434:1435   */\n  dup1\n    /* \"#utility.yul\":1427:1439   */\n  revert\n    /* \"#utility.yul\":1451:1553   */\ntag_32:\n    /* \"#utility.yul\":1492:1498   */\n  0x00\n    /* \"#utility.yul\":1543:1545   */\n  0x1f\n    /* \"#utility.yul\":1539:1546   */\n  not\n    /* \"#utility.yul\":1534:1536   */\n  0x1f\n    /* \"#utility.yul\":1527:1532   */\n  dup4\n    /* \"#utility.yul\":1523:1537   */\n  add\n    /* \"#utility.yul\":1519:1547   */\n  and\n    /* \"#utility.yul\":1509:1547   */\n  swap1\n  pop\n    /* \"#utility.yul\":1451:1553   */\n  swap2\n  swap1\n  pop\n  jump\t// out\n    /* \"#utility.yul\":1559:1739   */\ntag_33:\n    /* \"#utility.yul\":1607:1684   */\n  0x4e487b7100000000000000000000000000000000000000000000000000000000\n    /* \"#utility.yul\":1604:1605   */\n  0x00\n    /* \"#utility.yul\":1597:1685   */\n  mstore\n    /* \"#utility.yul\":1704:1708   */\n  0x41\n    /* \"#utility.yul\":1701:1702   */\n  0x04\n    /* \"#utility.yul\":1694:1709   */\n  mstore\n    /* \"#utility.yul\":1728:1732   */\n  0x24\n    /* \"#utility.yul\":1725:1726   */\n  0x00\n    /* \"#utility.yul\":1718:1733   */\n  revert\n    /* \"#utility.yul\":1745:2026   */\ntag_34:\n    /* \"#utility.yul\":1828:1855   */\n  tag_64\n    /* \"#utility.yul\":1850:1854   */\n  dup3\n    /* \"#utility.yul\":1828:1855   */\n  tag_32\n  jump\t// in\ntag_64:\n    /* \"#utility.yul\":1820:1826   */\n  dup2\n    /* \"#utility.yul\":1816:1856   */\n  add\n    /* \"#utility.yul\":1958:1964   */\n  dup2\n    /* \"#utility.yul\":1946:1956   */\n  dup2\n    /* \"#utility.yul\":1943:1965   */\n  lt\n    /* \"#utility.yul\":1922:1940   */\n  0xffffffffffffffff\n    /* \"#utility.yul\":1910:1920   */\n  dup3\n    /* \"#utility.yul\":1907:1941   */\n  gt\n    /* \"#utility.yul\":1904:1966   */\n  or\n    /* \"#utility.yul\":1901:1989   */\n  iszero\n  tag_65\n  jumpi\n    /* \"#utility.yul\":1969:1987   */\n  tag_66\n  tag_33\n  jump\t// in\ntag_66:\n    /* \"#utility.yul\":1901:1989   */\ntag_65:\n    /* \"#utility.yul\":2009:2019   */\n  dup1\n    /* \"#utility.yul\":2005:2007   */\n  0x40\n    /* \"#utility.yul\":1998:2020   */\n  mstore\n    /* \"#utility.yul\":1788:2026   */\n  pop\n    /* \"#utility.yul\":1745:2026   */\n  pop\n  pop\n  jump\t// out\n    /* \"#utility.yul\":2032:2161   */\ntag_35:\n    /* \"#utility.yul\":2066:2072   */\n  0x00\n    /* \"#utility.yul\":2093:2113   */\n  tag_68\n  tag_20\n  jump\t// in\ntag_68:\n    /* \"#utility.yul\":2083:2113   */\n  swap1\n  pop\n    /* \"#utility.yul\":2122:2155   */\n  tag_69\n    /* \"#utility.yul\":2150:2154   */\n  dup3\n    /* \"#utility.yul\":2142:2148   */\n  dup3\n    /* \"#utility.yul\":2122:2155   */\n  tag_34\n  jump\t// in\ntag_69:\n    /* \"#utility.yul\":2032:2161   */\n  swap2\n  swap1\n  pop\n  jump\t// out\n    /* \"#utility.yul\":2167:2475   */\ntag_36:\n    /* \"#utility.yul\":2229:2233   */\n  0x00\n    /* \"#utility.yul\":2319:2337   */\n  0xffffffffffffffff\n    /* \"#utility.yul\":2311:2317   */\n  dup3\n    /* \"#utility.yul\":2308:2338   */\n  gt\n    /* \"#utility.yul\":2305:2361   */\n  iszero\n  tag_71\n  jumpi\n    /* \"#utility.yul\":2341:2359   */\n  tag_72\n  tag_33\n  jump\t// in\ntag_72:\n    /* \"#utility.yul\":2305:2361   */\ntag_71:\n    /* \"#utility.yul\":2379:2408   */\n  tag_73\n    /* \"#utility.yul\":2401:2407   */\n  dup3\n    /* \"#utility.yul\":2379:2408   */\n  tag_32\n  jump\t// in\ntag_73:\n    /* \"#utility.yul\":2371:2408   */\n  swap1\n  pop\n    /* \"#utility.yul\":2463:2467   */\n  0x20\n    /* \"#utility.yul\":2457:2461   */\n  dup2\n    /* \"#utility.yul\":2453:2468   */\n  add\n    /* \"#utility.yul\":2445:2468   */\n  swap1\n  pop\n    /* \"#utility.yul\":2167:2475   */\n  swap2\n  swap1\n  pop\n  jump\t// out\n    /* \"#utility.yul\":2481:2788   */\ntag_37:\n    /* \"#utility.yul\":2549:2550   */\n  0x00\n    /* \"#utility.yul\":2559:2672   */\ntag_75:\n    /* \"#utility.yul\":2573:2579   */\n  dup4\n    /* \"#utility.yul\":2570:2571   */\n  dup2\n    /* \"#utility.yul\":2567:2580   */\n  lt\n    /* \"#utility.yul\":2559:2672   */\n  iszero\n  tag_77\n  jumpi\n    /* \"#utility.yul\":2658:2659   */\n  dup1\n    /* \"#utility.yul\":2653:2656   */\n  dup3\n    /* \"#utility.yul\":2649:2660   */\n  add\n    /* \"#utility.yul\":2643:2661   */\n  mload\n    /* \"#utility.yul\":2639:2640   */\n  dup2\n    /* \"#utility.yul\":2634:2637   */\n  dup5\n    /* \"#utility.yul\":2630:2641   */\n  add\n    /* \"#utility.yul\":2623:2662   */\n  mstore\n    /* \"#utility.yul\":2595:2597   */\n  0x20\n    /* \"#utility.yul\":2592:2593   */\n  dup2\n    /* \"#utility.yul\":2588:2598   */\n  add\n    /* \"#utility.yul\":2583:2598   */\n  swap1\n  pop\n    /* \"#utility.yul\":2559:2672   */\n  jump(tag_75)\ntag_77:\n    /* \"#utility.yul\":2690:2696   */\n  dup4\n    /* \"#utility.yul\":2687:2688   */\n  dup2\n    /* \"#utility.yul\":2684:2697   */\n  gt\n    /* \"#utility.yul\":2681:2782   */\n  iszero\n  tag_78\n  jumpi\n    /* \"#utility.yul\":2770:2771   */\n  0x00\n    /* \"#utility.yul\":2761:2767   */\n  dup5\n    /* \"#utility.yul\":2756:2759   */\n  dup5\n    /* \"#utility.yul\":2752:2768   */\n  add\n    /* \"#utility.yul\":2745:2772   */\n  mstore\n    /* \"#utility.yul\":2681:2782   */\ntag_78:\n    /* \"#utility.yul\":2530:2788   */\n  pop\n    /* \"#utility.yul\":2481:2788   */\n  pop\n  pop\n  pop\n  jump\t// out\n    /* \"#utility.yul\":2794:3215   */\ntag_38:\n    /* \"#utility.yul\":2883:2888   */\n  0x00\n    /* \"#utility.yul\":2908:2974   */\n  tag_80\n    /* \"#utility.yul\":2924:2973   */\n  tag_81\n    /* \"#utility.yul\":2966:2972   */\n  dup5\n    /* \"#utility.yul\":2924:2973   */\n  tag_36\n  jump\t// in\ntag_81:\n    /* \"#utility.yul\":2908:2974   */\n  tag_35\n  jump\t// in\ntag_80:\n    /* \"#utility.yul\":2899:2974   */\n  swap1\n  pop\n    /* \"#utility.yul\":2997:3003   */\n  dup3\n    /* \"#utility.yul\":2990:2995   */\n  dup2\n    /* \"#utility.yul\":2983:3004   */\n  mstore\n    /* \"#utility.yul\":3035:3039   */\n  0x20\n    /* \"#utility.yul\":3028:3033   */\n  dup2\n    /* \"#utility.yul\":3024:3040   */\n  add\n    /* \"#utility.yul\":3073:3076   */\n  dup5\n    /* \"#utility.yul\":3064:3070   */\n  dup5\n    /* \"#utility.yul\":3059:3062   */\n  dup5\n    /* \"#utility.yul\":3055:3071   */\n  add\n    /* \"#utility.yul\":3052:3077   */\n  gt\n    /* \"#utility.yul\":3049:3161   */\n  iszero\n  tag_82\n  jumpi\n    /* \"#utility.yul\":3080:3159   */\n  tag_83\n  tag_31\n  jump\t// in\ntag_83:\n    /* \"#utility.yul\":3049:3161   */\ntag_82:\n    /* \"#utility.yul\":3170:3209   */\n  tag_84\n    /* \"#utility.yul\":3202:3208   */\n  dup5\n    /* \"#utility.yul\":3197:3200   */\n  dup3\n    /* \"#utility.yul\":3192:3195   */\n  dup6\n    /* \"#utility.yul\":3170:3209   */\n  tag_37\n  jump\t// in\ntag_84:\n    /* \"#utility.yul\":2889:3215   */\n  pop\n    /* \"#utility.yul\":2794:3215   */\n  swap4\n  swap3\n  pop\n  pop\n  pop\n  jump\t// out\n    /* \"#utility.yul\":3235:3590   */\ntag_39:\n    /* \"#utility.yul\":3302:3307   */\n  0x00\n    /* \"#utility.yul\":3351:3354   */\n  dup3\n    /* \"#utility.yul\":3344:3348   */\n  0x1f\n    /* \"#utility.yul\":3336:3342   */\n  dup4\n    /* \"#utility.yul\":3332:3349   */\n  add\n    /* \"#utility.yul\":3328:3355   */\n  slt\n    /* \"#utility.yul\":3318:3440   */\n  tag_86\n  jumpi\n    /* \"#utility.yul\":3359:3438   */\n  tag_87\n  tag_30\n  jump\t// in\ntag_87:\n    /* \"#utility.yul\":3318:3440   */\ntag_86:\n    /* \"#utility.yul\":3469:3475   */\n  dup2\n    /* \"#utility.yul\":3463:3476   */\n  mload\n    /* \"#utility.yul\":3494:3584   */\n  tag_88\n    /* \"#utility.yul\":3580:3583   */\n  dup5\n    /* \"#utility.yul\":3572:3578   */\n  dup3\n    /* \"#utility.yul\":3565:3569   */\n  0x20\n    /* \"#utility.yul\":3557:3563   */\n  dup7\n    /* \"#utility.yul\":3553:3570   */\n  add\n    /* \"#utility.yul\":3494:3584   */\n  tag_38\n  jump\t// in\ntag_88:\n    /* \"#utility.yul\":3485:3584   */\n  swap2\n  pop\n    /* \"#utility.yul\":3308:3590   */\n  pop\n    /* \"#utility.yul\":3235:3590   */\n  swap3\n  swap2\n  pop\n  pop\n  jump\t// out\n    /* \"#utility.yul\":3596:4432   */\ntag_3:\n    /* \"#utility.yul\":3694:3700   */\n  0x00\n    /* \"#utility.yul\":3702:3708   */\n  dup1\n    /* \"#utility.yul\":3710:3716   */\n  0x00\n    /* \"#utility.yul\":3759:3761   */\n  0x60\n    /* \"#utility.yul\":3747:3756   */\n  dup5\n    /* \"#utility.yul\":3738:3745   */\n  dup7\n    /* \"#utility.yul\":3734:3757   */\n  sub\n    /* \"#utility.yul\":3730:3762   */\n  slt\n    /* \"#utility.yul\":3727:3846   */\n  iszero\n  tag_90\n  jumpi\n    /* \"#utility.yul\":3765:3844   */\n  tag_91\n  tag_21\n  jump\t// in\ntag_91:\n    /* \"#utility.yul\":3727:3846   */\ntag_90:\n    /* \"#utility.yul\":3885:3886   */\n  0x00\n    /* \"#utility.yul\":3910:3974   */\n  tag_92\n    /* \"#utility.yul\":3966:3973   */\n  dup7\n    /* \"#utility.yul\":3957:3963   */\n  dup3\n    /* \"#utility.yul\":3946:3955   */\n  dup8\n    /* \"#utility.yul\":3942:3964   */\n  add\n    /* \"#utility.yul\":3910:3974   */\n  tag_25\n  jump\t// in\ntag_92:\n    /* \"#utility.yul\":3900:3974   */\n  swap4\n  pop\n    /* \"#utility.yul\":3856:3984   */\n  pop\n    /* \"#utility.yul\":4023:4025   */\n  0x20\n    /* \"#utility.yul\":4049:4113   */\n  tag_93\n    /* \"#utility.yul\":4105:4112   */\n  dup7\n    /* \"#utility.yul\":4096:4102   */\n  dup3\n    /* \"#utility.yul\":4085:4094   */\n  dup8\n    /* \"#utility.yul\":4081:4103   */\n  add\n    /* \"#utility.yul\":4049:4113   */\n  tag_29\n  jump\t// in\ntag_93:\n    /* \"#utility.yul\":4039:4113   */\n  swap3\n  pop\n    /* \"#utility.yul\":3994:4123   */\n  pop\n    /* \"#utility.yul\":4183:4185   */\n  0x40\n    /* \"#utility.yul\":4172:4181   */\n  dup5\n    /* \"#utility.yul\":4168:4186   */\n  add\n    /* \"#utility.yul\":4162:4187   */\n  mload\n    /* \"#utility.yul\":4214:4232   */\n  0xffffffffffffffff\n    /* \"#utility.yul\":4206:4212   */\n  dup2\n    /* \"#utility.yul\":4203:4233   */\n  gt\n    /* \"#utility.yul\":4200:4317   */\n  iszero\n  tag_94\n  jumpi\n    /* \"#utility.yul\":4236:4315   */\n  tag_95\n  tag_22\n  jump\t// in\ntag_95:\n    /* \"#utility.yul\":4200:4317   */\ntag_94:\n    /* \"#utility.yul\":4341:4415   */\n  tag_96\n    /* \"#utility.yul\":4407:4414   */\n  dup7\n    /* \"#utility.yul\":4398:4404   */\n  dup3\n    /* \"#utility.yul\":4387:4396   */\n  dup8\n    /* \"#utility.yul\":4383:4405   */\n  add\n    /* \"#utility.yul\":4341:4415   */\n  tag_39\n  jump\t// in\ntag_96:\n    /* \"#utility.yul\":4331:4415   */\n  swap2\n  pop\n    /* \"#utility.yul\":4133:4425   */\n  pop\n    /* \"#utility.yul\":3596:4432   */\n  swap3\n  pop\n  swap3\n  pop\n  swap3\n  jump\t// out\n    /* \"#utility.yul\":4438:4618   */\ntag_40:\n    /* \"#utility.yul\":4486:4563   */\n  0x4e487b7100000000000000000000000000000000000000000000000000000000\n    /* \"#utility.yul\":4483:4484   */\n  0x00\n    /* \"#utility.yul\":4476:4564   */\n  mstore\n    /* \"#utility.yul\":4583:4587   */\n  0x22\n    /* \"#utility.yul\":4580:4581   */\n  0x04\n    /* \"#utility.yul\":4573:4588   */\n  mstore\n    /* \"#utility.yul\":4607:4611   */\n  0x24\n    /* \"#utility.yul\":4604:4605   */\n  0x00\n    /* \"#utility.yul\":4597:4612   */\n  revert\n    /* \"#utility.yul\":4624:4944   */\ntag_10:\n    /* \"#utility.yul\":4668:4674   */\n  0x00\n    /* \"#utility.yul\":4705:4706   */\n  0x02\n    /* \"#utility.yul\":4699:4703   */\n  dup3\n    /* \"#utility.yul\":4695:4707   */\n  div\n    /* \"#utility.yul\":4685:4707   */\n  swap1\n  pop\n    /* \"#utility.yul\":4752:4753   */\n  0x01\n    /* \"#utility.yul\":4746:4750   */\n  dup3\n    /* \"#utility.yul\":4742:4754   */\n  and\n    /* \"#utility.yul\":4773:4791   */\n  dup1\n    /* \"#utility.yul\":4763:4844   */\n  tag_99\n  jumpi\n    /* \"#utility.yul\":4829:4833   */\n  0x7f\n    /* \"#utility.yul\":4821:4827   */\n  dup3\n    /* \"#utility.yul\":4817:4834   */\n  and\n    /* \"#utility.yul\":4807:4834   */\n  swap2\n  pop\n    /* \"#utility.yul\":4763:4844   */\ntag_99:\n    /* \"#utility.yul\":4891:4893   */\n  0x20\n    /* \"#utility.yul\":4883:4889   */\n  dup3\n    /* \"#utility.yul\":4880:4894   */\n  lt\n    /* \"#utility.yul\":4860:4878   */\n  dup2\n    /* \"#utility.yul\":4857:4895   */\n  eq\n    /* \"#utility.yul\":4854:4938   */\n  iszero\n  tag_100\n  jumpi\n    /* \"#utility.yul\":4910:4928   */\n  tag_101\n  tag_40\n  jump\t// in\ntag_101:\n    /* \"#utility.yul\":4854:4938   */\ntag_100:\n    /* \"#utility.yul\":4675:4944   */\n  pop\n    /* \"#utility.yul\":4624:4944   */\n  swap2\n  swap1\n  pop\n  jump\t// out\n    /* \"Campaign.sol\":537:2754  contract Campaign {... */\ntag_8:\n  dataSize(sub_0)\n  dup1\n  dataOffset(sub_0)\n  0x00\n  codecopy\n  0x00\n  return\nstop\n\nsub_0: assembly {\n        /* \"Campaign.sol\":537:2754  contract Campaign {... */\n      mstore(0x40, 0x80)\n      jumpi(tag_1, lt(calldatasize, 0x04))\n      shr(0xe0, calldataload(0x00))\n      dup1\n      0x82fde093\n      gt\n      tag_14\n      jumpi\n      dup1\n      0x82fde093\n      eq\n      tag_8\n      jumpi\n      dup1\n      0x8a9cfd55\n      eq\n      tag_9\n      jumpi\n      dup1\n      0x937e09b1\n      eq\n      tag_10\n      jumpi\n      dup1\n      0xd7bb99ba\n      eq\n      tag_11\n      jumpi\n      dup1\n      0xd7d1bbdb\n      eq\n      tag_12\n      jumpi\n      dup1\n      0xfbbf93a0\n      eq\n      tag_13\n      jumpi\n      jump(tag_1)\n    tag_14:\n      dup1\n      0x03441006\n      eq\n      tag_2\n      jumpi\n      dup1\n      0x0a144391\n      eq\n      tag_3\n      jumpi\n      dup1\n      0x3fad1834\n      eq\n      tag_4\n      jumpi\n      dup1\n      0x481c6a75\n      eq\n      tag_5\n      jumpi\n      dup1\n      0x7284e416\n      eq\n      tag_6\n      jumpi\n      dup1\n      0x81d12c58\n      eq\n      tag_7\n      jumpi\n    tag_1:\n      0x00\n      dup1\n      revert\n        /* \"Campaign.sol\":2056:2363  function finalizeRequest(uint index) public restricted {... */\n    tag_2:\n      callvalue\n      dup1\n      iszero\n      tag_15\n      jumpi\n      0x00\n      dup1\n      revert\n    tag_15:\n      pop\n      tag_16\n      0x04\n      dup1\n      calldatasize\n      sub\n      dup2\n      add\n      swap1\n      tag_17\n      swap2\n      swap1\n      tag_18\n      jump\t// in\n    tag_17:\n      tag_19\n      jump\t// in\n    tag_16:\n      stop\n        /* \"Campaign.sol\":885:926  mapping(address => bool) public approvers */\n    tag_3:\n      callvalue\n      dup1\n      iszero\n      tag_20\n      jumpi\n      0x00\n      dup1\n      revert\n    tag_20:\n      pop\n      tag_21\n      0x04\n      dup1\n      calldatasize\n      sub\n      dup2\n      add\n      swap1\n      tag_22\n      swap2\n      swap1\n      tag_23\n      jump\t// in\n    tag_22:\n      tag_24\n      jump\t// in\n    tag_21:\n      mload(0x40)\n      tag_25\n      swap2\n      swap1\n      tag_26\n      jump\t// in\n    tag_25:\n      mload(0x40)\n      dup1\n      swap2\n      sub\n      swap1\n      return\n        /* \"Campaign.sol\":2659:2752  function getRequestCount() public view returns (uint) {... */\n    tag_4:\n      callvalue\n      dup1\n      iszero\n      tag_27\n      jumpi\n      0x00\n      dup1\n      revert\n    tag_27:\n      pop\n      tag_28\n      tag_29\n      jump\t// in\n    tag_28:\n      mload(0x40)\n      tag_30\n      swap2\n      swap1\n      tag_31\n      jump\t// in\n    tag_30:\n      mload(0x40)\n      dup1\n      swap2\n      sub\n      swap1\n      return\n        /* \"Campaign.sol\":820:842  address public manager */\n    tag_5:\n      callvalue\n      dup1\n      iszero\n      tag_32\n      jumpi\n      0x00\n      dup1\n      revert\n    tag_32:\n      pop\n      tag_33\n      tag_34\n      jump\t// in\n    tag_33:\n      mload(0x40)\n      tag_35\n      swap2\n      swap1\n      tag_36\n      jump\t// in\n    tag_35:\n      mload(0x40)\n      dup1\n      swap2\n      sub\n      swap1\n      return\n        /* \"Campaign.sol\":758:783  string public description */\n    tag_6:\n      callvalue\n      dup1\n      iszero\n      tag_37\n      jumpi\n      0x00\n      dup1\n      revert\n    tag_37:\n      pop\n      tag_38\n      tag_39\n      jump\t// in\n    tag_38:\n      mload(0x40)\n      tag_40\n      swap2\n      swap1\n      tag_41\n      jump\t// in\n    tag_40:\n      mload(0x40)\n      dup1\n      swap2\n      sub\n      swap1\n      return\n        /* \"Campaign.sol\":789:814  Request[] public requests */\n    tag_7:\n      callvalue\n      dup1\n      iszero\n      tag_42\n      jumpi\n      0x00\n      dup1\n      revert\n    tag_42:\n      pop\n      tag_43\n      0x04\n      dup1\n      calldatasize\n      sub\n      dup2\n      add\n      swap1\n      tag_44\n      swap2\n      swap1\n      tag_18\n      jump\t// in\n    tag_44:\n      tag_45\n      jump\t// in\n    tag_43:\n      mload(0x40)\n      tag_46\n      swap6\n      swap5\n      swap4\n      swap3\n      swap2\n      swap1\n      tag_47\n      jump\t// in\n    tag_46:\n      mload(0x40)\n      dup1\n      swap2\n      sub\n      swap1\n      return\n        /* \"Campaign.sol\":932:958  uint public approversCount */\n    tag_8:\n      callvalue\n      dup1\n      iszero\n      tag_48\n      jumpi\n      0x00\n      dup1\n      revert\n    tag_48:\n      pop\n      tag_49\n      tag_50\n      jump\t// in\n    tag_49:\n      mload(0x40)\n      tag_51\n      swap2\n      swap1\n      tag_31\n      jump\t// in\n    tag_51:\n      mload(0x40)\n      dup1\n      swap2\n      sub\n      swap1\n      return\n        /* \"Campaign.sol\":1386:1773  function createRequest(... */\n    tag_9:\n      callvalue\n      dup1\n      iszero\n      tag_52\n      jumpi\n      0x00\n      dup1\n      revert\n    tag_52:\n      pop\n      tag_53\n      0x04\n      dup1\n      calldatasize\n      sub\n      dup2\n      add\n      swap1\n      tag_54\n      swap2\n      swap1\n      tag_55\n      jump\t// in\n    tag_54:\n      tag_56\n      jump\t// in\n    tag_53:\n      stop\n        /* \"Campaign.sol\":848:879  uint public minimumContribution */\n    tag_10:\n      callvalue\n      dup1\n      iszero\n      tag_57\n      jumpi\n      0x00\n      dup1\n      revert\n    tag_57:\n      pop\n      tag_58\n      tag_59\n      jump\t// in\n    tag_58:\n      mload(0x40)\n      tag_60\n      swap2\n      swap1\n      tag_31\n      jump\t// in\n    tag_60:\n      mload(0x40)\n      dup1\n      swap2\n      sub\n      swap1\n      return\n        /* \"Campaign.sol\":1221:1380  function contribute() public payable {... */\n    tag_11:\n      tag_61\n      tag_62\n      jump\t// in\n    tag_61:\n      stop\n        /* \"Campaign.sol\":1779:2050  function approveRequest(uint index) public {... */\n    tag_12:\n      callvalue\n      dup1\n      iszero\n      tag_63\n      jumpi\n      0x00\n      dup1\n      revert\n    tag_63:\n      pop\n      tag_64\n      0x04\n      dup1\n      calldatasize\n      sub\n      dup2\n      add\n      swap1\n      tag_65\n      swap2\n      swap1\n      tag_18\n      jump\t// in\n    tag_65:\n      tag_66\n      jump\t// in\n    tag_64:\n      stop\n        /* \"Campaign.sol\":2369:2653  function getDetails()... */\n    tag_13:\n      callvalue\n      dup1\n      iszero\n      tag_67\n      jumpi\n      0x00\n      dup1\n      revert\n    tag_67:\n      pop\n      tag_68\n      tag_69\n      jump\t// in\n    tag_68:\n      mload(0x40)\n      tag_70\n      swap6\n      swap5\n      swap4\n      swap3\n      swap2\n      swap1\n      tag_71\n      jump\t// in\n    tag_70:\n      mload(0x40)\n      dup1\n      swap2\n      sub\n      swap1\n      return\n        /* \"Campaign.sol\":2056:2363  function finalizeRequest(uint index) public restricted {... */\n    tag_19:\n        /* \"Campaign.sol\":1019:1026  manager */\n      0x02\n      0x00\n      swap1\n      sload\n      swap1\n      0x0100\n      exp\n      swap1\n      div\n      0xffffffffffffffffffffffffffffffffffffffff\n      and\n        /* \"Campaign.sol\":1005:1026  msg.sender == manager */\n      0xffffffffffffffffffffffffffffffffffffffff\n      and\n        /* \"Campaign.sol\":1005:1015  msg.sender */\n      caller\n        /* \"Campaign.sol\":1005:1026  msg.sender == manager */\n      0xffffffffffffffffffffffffffffffffffffffff\n      and\n      eq\n        /* \"Campaign.sol\":997:1027  require(msg.sender == manager) */\n      tag_73\n      jumpi\n      0x00\n      dup1\n      revert\n    tag_73:\n        /* \"Campaign.sol\":2121:2144  Request storage request */\n      0x00\n        /* \"Campaign.sol\":2147:2155  requests */\n      0x01\n        /* \"Campaign.sol\":2156:2161  index */\n      dup3\n        /* \"Campaign.sol\":2147:2162  requests[index] */\n      dup2\n      sload\n      dup2\n      lt\n      tag_75\n      jumpi\n      tag_76\n      tag_77\n      jump\t// in\n    tag_76:\n    tag_75:\n      swap1\n      0x00\n      mstore\n      keccak256(0x00, 0x20)\n      swap1\n      0x05\n      mul\n      add\n        /* \"Campaign.sol\":2121:2162  Request storage request = requests[index] */\n      swap1\n      pop\n        /* \"Campaign.sol\":2223:2224  2 */\n      0x02\n        /* \"Campaign.sol\":2206:2220  approversCount */\n      sload(0x05)\n        /* \"Campaign.sol\":2206:2224  approversCount / 2 */\n      tag_79\n      swap2\n      swap1\n      tag_80\n      jump\t// in\n    tag_79:\n        /* \"Campaign.sol\":2181:2188  request */\n      dup2\n        /* \"Campaign.sol\":2181:2202  request.approvalCount */\n      0x03\n      add\n      sload\n        /* \"Campaign.sol\":2181:2225  request.approvalCount > (approversCount / 2) */\n      gt\n        /* \"Campaign.sol\":2173:2226  require(request.approvalCount > (approversCount / 2)) */\n      tag_81\n      jumpi\n      0x00\n      dup1\n      revert\n    tag_81:\n        /* \"Campaign.sol\":2245:2252  request */\n      dup1\n        /* \"Campaign.sol\":2245:2261  request.complete */\n      0x02\n      add\n      0x14\n      swap1\n      sload\n      swap1\n      0x0100\n      exp\n      swap1\n      div\n      0xff\n      and\n        /* \"Campaign.sol\":2244:2261  !request.complete */\n      iszero\n        /* \"Campaign.sol\":2236:2262  require(!request.complete) */\n      tag_82\n      jumpi\n      0x00\n      dup1\n      revert\n    tag_82:\n        /* \"Campaign.sol\":2281:2288  request */\n      dup1\n        /* \"Campaign.sol\":2281:2298  request.recipient */\n      0x02\n      add\n      0x00\n      swap1\n      sload\n      swap1\n      0x0100\n      exp\n      swap1\n      div\n      0xffffffffffffffffffffffffffffffffffffffff\n      and\n        /* \"Campaign.sol\":2273:2308  payable(request.recipient).transfer */\n      0xffffffffffffffffffffffffffffffffffffffff\n      and\n        /* \"Campaign.sol\":2273:2323  payable(request.recipient).transfer(request.value) */\n      0x08fc\n        /* \"Campaign.sol\":2309:2316  request */\n      dup3\n        /* \"Campaign.sol\":2309:2322  request.value */\n      0x01\n      add\n      sload\n        /* \"Campaign.sol\":2273:2323  payable(request.recipient).transfer(request.value) */\n      swap1\n      dup2\n      iszero\n      mul\n      swap1\n      mload(0x40)\n      0x00\n      mload(0x40)\n      dup1\n      dup4\n      sub\n      dup2\n      dup6\n      dup9\n      dup9\n      call\n      swap4\n      pop\n      pop\n      pop\n      pop\n      iszero\n      dup1\n      iszero\n      tag_84\n      jumpi\n      returndatasize\n      0x00\n      dup1\n      returndatacopy\n      revert(0x00, returndatasize)\n    tag_84:\n      pop\n        /* \"Campaign.sol\":2352:2356  true */\n      0x01\n        /* \"Campaign.sol\":2333:2340  request */\n      dup2\n        /* \"Campaign.sol\":2333:2349  request.complete */\n      0x02\n      add\n      0x14\n        /* \"Campaign.sol\":2333:2356  request.complete = true */\n      0x0100\n      exp\n      dup2\n      sload\n      dup2\n      0xff\n      mul\n      not\n      and\n      swap1\n      dup4\n      iszero\n      iszero\n      mul\n      or\n      swap1\n      sstore\n      pop\n        /* \"Campaign.sol\":2111:2363  {... */\n      pop\n        /* \"Campaign.sol\":2056:2363  function finalizeRequest(uint index) public restricted {... */\n      pop\n      jump\t// out\n        /* \"Campaign.sol\":885:926  mapping(address => bool) public approvers */\n    tag_24:\n      mstore(0x20, 0x04)\n      dup1\n      0x00\n      mstore\n      keccak256(0x00, 0x40)\n      0x00\n      swap2\n      pop\n      sload\n      swap1\n      0x0100\n      exp\n      swap1\n      div\n      0xff\n      and\n      dup2\n      jump\t// out\n        /* \"Campaign.sol\":2659:2752  function getRequestCount() public view returns (uint) {... */\n    tag_29:\n        /* \"Campaign.sol\":2707:2711  uint */\n      0x00\n        /* \"Campaign.sol\":2730:2738  requests */\n      0x01\n        /* \"Campaign.sol\":2730:2745  requests.length */\n      dup1\n      sload\n      swap1\n      pop\n        /* \"Campaign.sol\":2723:2745  return requests.length */\n      swap1\n      pop\n        /* \"Campaign.sol\":2659:2752  function getRequestCount() public view returns (uint) {... */\n      swap1\n      jump\t// out\n        /* \"Campaign.sol\":820:842  address public manager */\n    tag_34:\n      0x02\n      0x00\n      swap1\n      sload\n      swap1\n      0x0100\n      exp\n      swap1\n      div\n      0xffffffffffffffffffffffffffffffffffffffff\n      and\n      dup2\n      jump\t// out\n        /* \"Campaign.sol\":758:783  string public description */\n    tag_39:\n      0x00\n      dup1\n      sload\n      tag_86\n      swap1\n      tag_87\n      jump\t// in\n    tag_86:\n      dup1\n      0x1f\n      add\n      0x20\n      dup1\n      swap2\n      div\n      mul\n      0x20\n      add\n      mload(0x40)\n      swap1\n      dup2\n      add\n      0x40\n      mstore\n      dup1\n      swap3\n      swap2\n      swap1\n      dup2\n      dup2\n      mstore\n      0x20\n      add\n      dup3\n      dup1\n      sload\n      tag_88\n      swap1\n      tag_87\n      jump\t// in\n    tag_88:\n      dup1\n      iszero\n      tag_89\n      jumpi\n      dup1\n      0x1f\n      lt\n      tag_90\n      jumpi\n      0x0100\n      dup1\n      dup4\n      sload\n      div\n      mul\n      dup4\n      mstore\n      swap2\n      0x20\n      add\n      swap2\n      jump(tag_89)\n    tag_90:\n      dup3\n      add\n      swap2\n      swap1\n      0x00\n      mstore\n      keccak256(0x00, 0x20)\n      swap1\n    tag_91:\n      dup2\n      sload\n      dup2\n      mstore\n      swap1\n      0x01\n      add\n      swap1\n      0x20\n      add\n      dup1\n      dup4\n      gt\n      tag_91\n      jumpi\n      dup3\n      swap1\n      sub\n      0x1f\n      and\n      dup3\n      add\n      swap2\n    tag_89:\n      pop\n      pop\n      pop\n      pop\n      pop\n      dup2\n      jump\t// out\n        /* \"Campaign.sol\":789:814  Request[] public requests */\n    tag_45:\n      0x01\n      dup2\n      dup2\n      sload\n      dup2\n      lt\n      tag_92\n      jumpi\n      0x00\n      dup1\n      revert\n    tag_92:\n      swap1\n      0x00\n      mstore\n      keccak256(0x00, 0x20)\n      swap1\n      0x05\n      mul\n      add\n      0x00\n      swap2\n      pop\n      swap1\n      pop\n      dup1\n      0x00\n      add\n      dup1\n      sload\n      tag_94\n      swap1\n      tag_87\n      jump\t// in\n    tag_94:\n      dup1\n      0x1f\n      add\n      0x20\n      dup1\n      swap2\n      div\n      mul\n      0x20\n      add\n      mload(0x40)\n      swap1\n      dup2\n      add\n      0x40\n      mstore\n      dup1\n      swap3\n      swap2\n      swap1\n      dup2\n      dup2\n      mstore\n      0x20\n      add\n      dup3\n      dup1\n      sload\n      tag_95\n      swap1\n      tag_87\n      jump\t// in\n    tag_95:\n      dup1\n      iszero\n      tag_96\n      jumpi\n      dup1\n      0x1f\n      lt\n      tag_97\n      jumpi\n      0x0100\n      dup1\n      dup4\n      sload\n      div\n      mul\n      dup4\n      mstore\n      swap2\n      0x20\n      add\n      swap2\n      jump(tag_96)\n    tag_97:\n      dup3\n      add\n      swap2\n      swap1\n      0x00\n      mstore\n      keccak256(0x00, 0x20)\n      swap1\n    tag_98:\n      dup2\n      sload\n      dup2\n      mstore\n      swap1\n      0x01\n      add\n      swap1\n      0x20\n      add\n      dup1\n      dup4\n      gt\n      tag_98\n      jumpi\n      dup3\n      swap1\n      sub\n      0x1f\n      and\n      dup3\n      add\n      swap2\n    tag_96:\n      pop\n      pop\n      pop\n      pop\n      pop\n      swap1\n      dup1\n      0x01\n      add\n      sload\n      swap1\n      dup1\n      0x02\n      add\n      0x00\n      swap1\n      sload\n      swap1\n      0x0100\n      exp\n      swap1\n      div\n      0xffffffffffffffffffffffffffffffffffffffff\n      and\n      swap1\n      dup1\n      0x02\n      add\n      0x14\n      swap1\n      sload\n      swap1\n      0x0100\n      exp\n      swap1\n      div\n      0xff\n      and\n      swap1\n      dup1\n      0x03\n      add\n      sload\n      swap1\n      pop\n      dup6\n      jump\t// out\n        /* \"Campaign.sol\":932:958  uint public approversCount */\n    tag_50:\n      sload(0x05)\n      dup2\n      jump\t// out\n        /* \"Campaign.sol\":1386:1773  function createRequest(... */\n    tag_56:\n        /* \"Campaign.sol\":1019:1026  manager */\n      0x02\n      0x00\n      swap1\n      sload\n      swap1\n      0x0100\n      exp\n      swap1\n      div\n      0xffffffffffffffffffffffffffffffffffffffff\n      and\n        /* \"Campaign.sol\":1005:1026  msg.sender == manager */\n      0xffffffffffffffffffffffffffffffffffffffff\n      and\n        /* \"Campaign.sol\":1005:1015  msg.sender */\n      caller\n        /* \"Campaign.sol\":1005:1026  msg.sender == manager */\n      0xffffffffffffffffffffffffffffffffffffffff\n      and\n      eq\n        /* \"Campaign.sol\":997:1027  require(msg.sender == manager) */\n      tag_100\n      jumpi\n      0x00\n      dup1\n      revert\n    tag_100:\n        /* \"Campaign.sol\":1525:1551  Request storage newRequest */\n      0x00\n        /* \"Campaign.sol\":1554:1562  requests */\n      0x01\n        /* \"Campaign.sol\":1554:1569  requests.push() */\n      dup1\n      dup2\n      0x01\n      dup2\n      sload\n      add\n      dup1\n      dup3\n      sstore\n      dup1\n      swap2\n      pop\n      pop\n      sub\n      swap1\n      0x00\n      mstore\n      keccak256(0x00, 0x20)\n      swap1\n      0x05\n      mul\n      add\n        /* \"Campaign.sol\":1525:1569  Request storage newRequest = requests.push() */\n      swap1\n      pop\n        /* \"Campaign.sol\":1604:1615  description */\n      dup4\n        /* \"Campaign.sol\":1579:1589  newRequest */\n      dup2\n        /* \"Campaign.sol\":1579:1601  newRequest.description */\n      0x00\n      add\n        /* \"Campaign.sol\":1579:1615  newRequest.description = description */\n      swap1\n      dup1\n      mload\n      swap1\n      0x20\n      add\n      swap1\n      tag_103\n      swap3\n      swap2\n      swap1\n      tag_104\n      jump\t// in\n    tag_103:\n      pop\n        /* \"Campaign.sol\":1644:1649  value */\n      dup3\n        /* \"Campaign.sol\":1625:1635  newRequest */\n      dup2\n        /* \"Campaign.sol\":1625:1641  newRequest.value */\n      0x01\n      add\n        /* \"Campaign.sol\":1625:1649  newRequest.value = value */\n      dup2\n      swap1\n      sstore\n      pop\n        /* \"Campaign.sol\":1682:1691  recipient */\n      dup2\n        /* \"Campaign.sol\":1659:1669  newRequest */\n      dup2\n        /* \"Campaign.sol\":1659:1679  newRequest.recipient */\n      0x02\n      add\n      0x00\n        /* \"Campaign.sol\":1659:1691  newRequest.recipient = recipient */\n      0x0100\n      exp\n      dup2\n      sload\n      dup2\n      0xffffffffffffffffffffffffffffffffffffffff\n      mul\n      not\n      and\n      swap1\n      dup4\n      0xffffffffffffffffffffffffffffffffffffffff\n      and\n      mul\n      or\n      swap1\n      sstore\n      pop\n        /* \"Campaign.sol\":1723:1728  false */\n      0x00\n        /* \"Campaign.sol\":1701:1711  newRequest */\n      dup2\n        /* \"Campaign.sol\":1701:1720  newRequest.complete */\n      0x02\n      add\n      0x14\n        /* \"Campaign.sol\":1701:1728  newRequest.complete = false */\n      0x0100\n      exp\n      dup2\n      sload\n      dup2\n      0xff\n      mul\n      not\n      and\n      swap1\n      dup4\n      iszero\n      iszero\n      mul\n      or\n      swap1\n      sstore\n      pop\n        /* \"Campaign.sol\":1765:1766  0 */\n      0x00\n        /* \"Campaign.sol\":1738:1748  newRequest */\n      dup2\n        /* \"Campaign.sol\":1738:1762  newRequest.approvalCount */\n      0x03\n      add\n        /* \"Campaign.sol\":1738:1766  newRequest.approvalCount = 0 */\n      dup2\n      swap1\n      sstore\n      pop\n        /* \"Campaign.sol\":1515:1773  {... */\n      pop\n        /* \"Campaign.sol\":1386:1773  function createRequest(... */\n      pop\n      pop\n      pop\n      jump\t// out\n        /* \"Campaign.sol\":848:879  uint public minimumContribution */\n    tag_59:\n      sload(0x03)\n      dup2\n      jump\t// out\n        /* \"Campaign.sol\":1221:1380  function contribute() public payable {... */\n    tag_62:\n        /* \"Campaign.sol\":1288:1307  minimumContribution */\n      sload(0x03)\n        /* \"Campaign.sol\":1276:1285  msg.value */\n      callvalue\n        /* \"Campaign.sol\":1276:1307  msg.value > minimumContribution */\n      gt\n        /* \"Campaign.sol\":1268:1308  require(msg.value > minimumContribution) */\n      tag_106\n      jumpi\n      0x00\n      dup1\n      revert\n    tag_106:\n        /* \"Campaign.sol\":1343:1347  true */\n      0x01\n        /* \"Campaign.sol\":1319:1328  approvers */\n      0x04\n        /* \"Campaign.sol\":1319:1340  approvers[msg.sender] */\n      0x00\n        /* \"Campaign.sol\":1329:1339  msg.sender */\n      caller\n        /* \"Campaign.sol\":1319:1340  approvers[msg.sender] */\n      0xffffffffffffffffffffffffffffffffffffffff\n      and\n      0xffffffffffffffffffffffffffffffffffffffff\n      and\n      dup2\n      mstore\n      0x20\n      add\n      swap1\n      dup2\n      mstore\n      0x20\n      add\n      0x00\n      keccak256\n      0x00\n        /* \"Campaign.sol\":1319:1347  approvers[msg.sender] = true */\n      0x0100\n      exp\n      dup2\n      sload\n      dup2\n      0xff\n      mul\n      not\n      and\n      swap1\n      dup4\n      iszero\n      iszero\n      mul\n      or\n      swap1\n      sstore\n      pop\n        /* \"Campaign.sol\":1357:1371  approversCount */\n      0x05\n      0x00\n        /* \"Campaign.sol\":1357:1373  approversCount++ */\n      dup2\n      sload\n      dup1\n      swap3\n      swap2\n      swap1\n      tag_107\n      swap1\n      tag_108\n      jump\t// in\n    tag_107:\n      swap2\n      swap1\n      pop\n      sstore\n      pop\n        /* \"Campaign.sol\":1221:1380  function contribute() public payable {... */\n      jump\t// out\n        /* \"Campaign.sol\":1779:2050  function approveRequest(uint index) public {... */\n    tag_66:\n        /* \"Campaign.sol\":1832:1855  Request storage request */\n      0x00\n        /* \"Campaign.sol\":1858:1866  requests */\n      0x01\n        /* \"Campaign.sol\":1867:1872  index */\n      dup3\n        /* \"Campaign.sol\":1858:1873  requests[index] */\n      dup2\n      sload\n      dup2\n      lt\n      tag_110\n      jumpi\n      tag_111\n      tag_77\n      jump\t// in\n    tag_111:\n    tag_110:\n      swap1\n      0x00\n      mstore\n      keccak256(0x00, 0x20)\n      swap1\n      0x05\n      mul\n      add\n        /* \"Campaign.sol\":1832:1873  Request storage request = requests[index] */\n      swap1\n      pop\n        /* \"Campaign.sol\":1892:1901  approvers */\n      0x04\n        /* \"Campaign.sol\":1892:1913  approvers[msg.sender] */\n      0x00\n        /* \"Campaign.sol\":1902:1912  msg.sender */\n      caller\n        /* \"Campaign.sol\":1892:1913  approvers[msg.sender] */\n      0xffffffffffffffffffffffffffffffffffffffff\n      and\n      0xffffffffffffffffffffffffffffffffffffffff\n      and\n      dup2\n      mstore\n      0x20\n      add\n      swap1\n      dup2\n      mstore\n      0x20\n      add\n      0x00\n      keccak256\n      0x00\n      swap1\n      sload\n      swap1\n      0x0100\n      exp\n      swap1\n      div\n      0xff\n      and\n        /* \"Campaign.sol\":1884:1914  require(approvers[msg.sender]) */\n      tag_113\n      jumpi\n      0x00\n      dup1\n      revert\n    tag_113:\n        /* \"Campaign.sol\":1933:1940  request */\n      dup1\n        /* \"Campaign.sol\":1933:1950  request.approvals */\n      0x04\n      add\n        /* \"Campaign.sol\":1933:1962  request.approvals[msg.sender] */\n      0x00\n        /* \"Campaign.sol\":1951:1961  msg.sender */\n      caller\n        /* \"Campaign.sol\":1933:1962  request.approvals[msg.sender] */\n      0xffffffffffffffffffffffffffffffffffffffff\n      and\n      0xffffffffffffffffffffffffffffffffffffffff\n      and\n      dup2\n      mstore\n      0x20\n      add\n      swap1\n      dup2\n      mstore\n      0x20\n      add\n      0x00\n      keccak256\n      0x00\n      swap1\n      sload\n      swap1\n      0x0100\n      exp\n      swap1\n      div\n      0xff\n      and\n        /* \"Campaign.sol\":1932:1962  !request.approvals[msg.sender] */\n      iszero\n        /* \"Campaign.sol\":1924:1963  require(!request.approvals[msg.sender]) */\n      tag_114\n      jumpi\n      0x00\n      dup1\n      revert\n    tag_114:\n        /* \"Campaign.sol\":2006:2010  true */\n      0x01\n        /* \"Campaign.sol\":1974:1981  request */\n      dup2\n        /* \"Campaign.sol\":1974:1991  request.approvals */\n      0x04\n      add\n        /* \"Campaign.sol\":1974:2003  request.approvals[msg.sender] */\n      0x00\n        /* \"Campaign.sol\":1992:2002  msg.sender */\n      caller\n        /* \"Campaign.sol\":1974:2003  request.approvals[msg.sender] */\n      0xffffffffffffffffffffffffffffffffffffffff\n      and\n      0xffffffffffffffffffffffffffffffffffffffff\n      and\n      dup2\n      mstore\n      0x20\n      add\n      swap1\n      dup2\n      mstore\n      0x20\n      add\n      0x00\n      keccak256\n      0x00\n        /* \"Campaign.sol\":1974:2010  request.approvals[msg.sender] = true */\n      0x0100\n      exp\n      dup2\n      sload\n      dup2\n      0xff\n      mul\n      not\n      and\n      swap1\n      dup4\n      iszero\n      iszero\n      mul\n      or\n      swap1\n      sstore\n      pop\n        /* \"Campaign.sol\":2020:2027  request */\n      dup1\n        /* \"Campaign.sol\":2020:2041  request.approvalCount */\n      0x03\n      add\n      0x00\n        /* \"Campaign.sol\":2020:2043  request.approvalCount++ */\n      dup2\n      sload\n      dup1\n      swap3\n      swap2\n      swap1\n      tag_115\n      swap1\n      tag_108\n      jump\t// in\n    tag_115:\n      swap2\n      swap1\n      pop\n      sstore\n      pop\n        /* \"Campaign.sol\":1822:2050  {... */\n      pop\n        /* \"Campaign.sol\":1779:2050  function approveRequest(uint index) public {... */\n      pop\n      jump\t// out\n        /* \"Campaign.sol\":2369:2653  function getDetails()... */\n    tag_69:\n        /* \"Campaign.sol\":2436:2440  uint */\n      0x00\n        /* \"Campaign.sol\":2442:2446  uint */\n      dup1\n        /* \"Campaign.sol\":2448:2452  uint */\n      0x00\n        /* \"Campaign.sol\":2454:2458  uint */\n      dup1\n        /* \"Campaign.sol\":2460:2467  address */\n      0x00\n        /* \"Campaign.sol\":2504:2523  minimumContribution */\n      sload(0x03)\n        /* \"Campaign.sol\":2537:2558  address(this).balance */\n      selfbalance\n        /* \"Campaign.sol\":2572:2580  requests */\n      0x01\n        /* \"Campaign.sol\":2572:2587  requests.length */\n      dup1\n      sload\n      swap1\n      pop\n        /* \"Campaign.sol\":2601:2615  approversCount */\n      sload(0x05)\n        /* \"Campaign.sol\":2629:2636  manager */\n      0x02\n      0x00\n      swap1\n      sload\n      swap1\n      0x0100\n      exp\n      swap1\n      div\n      0xffffffffffffffffffffffffffffffffffffffff\n      and\n        /* \"Campaign.sol\":2483:2646  return (... */\n      swap5\n      pop\n      swap5\n      pop\n      swap5\n      pop\n      swap5\n      pop\n      swap5\n      pop\n        /* \"Campaign.sol\":2369:2653  function getDetails()... */\n      swap1\n      swap2\n      swap3\n      swap4\n      swap5\n      jump\t// out\n    tag_104:\n      dup3\n      dup1\n      sload\n      tag_117\n      swap1\n      tag_87\n      jump\t// in\n    tag_117:\n      swap1\n      0x00\n      mstore\n      keccak256(0x00, 0x20)\n      swap1\n      0x1f\n      add\n      0x20\n      swap1\n      div\n      dup2\n      add\n      swap3\n      dup3\n      tag_119\n      jumpi\n      0x00\n      dup6\n      sstore\n      jump(tag_118)\n    tag_119:\n      dup3\n      0x1f\n      lt\n      tag_120\n      jumpi\n      dup1\n      mload\n      not(0xff)\n      and\n      dup4\n      dup1\n      add\n      or\n      dup6\n      sstore\n      jump(tag_118)\n    tag_120:\n      dup3\n      dup1\n      add\n      0x01\n      add\n      dup6\n      sstore\n      dup3\n      iszero\n      tag_118\n      jumpi\n      swap2\n      dup3\n      add\n    tag_121:\n      dup3\n      dup2\n      gt\n      iszero\n      tag_122\n      jumpi\n      dup3\n      mload\n      dup3\n      sstore\n      swap2\n      0x20\n      add\n      swap2\n      swap1\n      0x01\n      add\n      swap1\n      jump(tag_121)\n    tag_122:\n    tag_118:\n      pop\n      swap1\n      pop\n      tag_123\n      swap2\n      swap1\n      tag_124\n      jump\t// in\n    tag_123:\n      pop\n      swap1\n      jump\t// out\n    tag_124:\n    tag_125:\n      dup1\n      dup3\n      gt\n      iszero\n      tag_126\n      jumpi\n      0x00\n      dup2\n      0x00\n      swap1\n      sstore\n      pop\n      0x01\n      add\n      jump(tag_125)\n    tag_126:\n      pop\n      swap1\n      jump\t// out\n        /* \"#utility.yul\":7:82   */\n    tag_127:\n        /* \"#utility.yul\":40:46   */\n      0x00\n        /* \"#utility.yul\":73:75   */\n      0x40\n        /* \"#utility.yul\":67:76   */\n      mload\n        /* \"#utility.yul\":57:76   */\n      swap1\n      pop\n        /* \"#utility.yul\":7:82   */\n      swap1\n      jump\t// out\n        /* \"#utility.yul\":88:205   */\n    tag_128:\n        /* \"#utility.yul\":197:198   */\n      0x00\n        /* \"#utility.yul\":194:195   */\n      dup1\n        /* \"#utility.yul\":187:199   */\n      revert\n        /* \"#utility.yul\":211:328   */\n    tag_129:\n        /* \"#utility.yul\":320:321   */\n      0x00\n        /* \"#utility.yul\":317:318   */\n      dup1\n        /* \"#utility.yul\":310:322   */\n      revert\n        /* \"#utility.yul\":334:411   */\n    tag_130:\n        /* \"#utility.yul\":371:378   */\n      0x00\n        /* \"#utility.yul\":400:405   */\n      dup2\n        /* \"#utility.yul\":389:405   */\n      swap1\n      pop\n        /* \"#utility.yul\":334:411   */\n      swap2\n      swap1\n      pop\n      jump\t// out\n        /* \"#utility.yul\":417:539   */\n    tag_131:\n        /* \"#utility.yul\":490:514   */\n      tag_164\n        /* \"#utility.yul\":508:513   */\n      dup2\n        /* \"#utility.yul\":490:514   */\n      tag_130\n      jump\t// in\n    tag_164:\n        /* \"#utility.yul\":483:488   */\n      dup2\n        /* \"#utility.yul\":480:515   */\n      eq\n        /* \"#utility.yul\":470:533   */\n      tag_165\n      jumpi\n        /* \"#utility.yul\":529:530   */\n      0x00\n        /* \"#utility.yul\":526:527   */\n      dup1\n        /* \"#utility.yul\":519:531   */\n      revert\n        /* \"#utility.yul\":470:533   */\n    tag_165:\n        /* \"#utility.yul\":417:539   */\n      pop\n      jump\t// out\n        /* \"#utility.yul\":545:684   */\n    tag_132:\n        /* \"#utility.yul\":591:596   */\n      0x00\n        /* \"#utility.yul\":629:635   */\n      dup2\n        /* \"#utility.yul\":616:636   */\n      calldataload\n        /* \"#utility.yul\":607:636   */\n      swap1\n      pop\n        /* \"#utility.yul\":645:678   */\n      tag_167\n        /* \"#utility.yul\":672:677   */\n      dup2\n        /* \"#utility.yul\":645:678   */\n      tag_131\n      jump\t// in\n    tag_167:\n        /* \"#utility.yul\":545:684   */\n      swap3\n      swap2\n      pop\n      pop\n      jump\t// out\n        /* \"#utility.yul\":690:1019   */\n    tag_18:\n        /* \"#utility.yul\":749:755   */\n      0x00\n        /* \"#utility.yul\":798:800   */\n      0x20\n        /* \"#utility.yul\":786:795   */\n      dup3\n        /* \"#utility.yul\":777:784   */\n      dup5\n        /* \"#utility.yul\":773:796   */\n      sub\n        /* \"#utility.yul\":769:801   */\n      slt\n        /* \"#utility.yul\":766:885   */\n      iszero\n      tag_169\n      jumpi\n        /* \"#utility.yul\":804:883   */\n      tag_170\n      tag_128\n      jump\t// in\n    tag_170:\n        /* \"#utility.yul\":766:885   */\n    tag_169:\n        /* \"#utility.yul\":924:925   */\n      0x00\n        /* \"#utility.yul\":949:1002   */\n      tag_171\n        /* \"#utility.yul\":994:1001   */\n      dup5\n        /* \"#utility.yul\":985:991   */\n      dup3\n        /* \"#utility.yul\":974:983   */\n      dup6\n        /* \"#utility.yul\":970:992   */\n      add\n        /* \"#utility.yul\":949:1002   */\n      tag_132\n      jump\t// in\n    tag_171:\n        /* \"#utility.yul\":939:1002   */\n      swap2\n      pop\n        /* \"#utility.yul\":895:1012   */\n      pop\n        /* \"#utility.yul\":690:1019   */\n      swap3\n      swap2\n      pop\n      pop\n      jump\t// out\n        /* \"#utility.yul\":1025:1151   */\n    tag_133:\n        /* \"#utility.yul\":1062:1069   */\n      0x00\n        /* \"#utility.yul\":1102:1144   */\n      0xffffffffffffffffffffffffffffffffffffffff\n        /* \"#utility.yul\":1095:1100   */\n      dup3\n        /* \"#utility.yul\":1091:1145   */\n      and\n        /* \"#utility.yul\":1080:1145   */\n      swap1\n      pop\n        /* \"#utility.yul\":1025:1151   */\n      swap2\n      swap1\n      pop\n      jump\t// out\n        /* \"#utility.yul\":1157:1253   */\n    tag_134:\n        /* \"#utility.yul\":1194:1201   */\n      0x00\n        /* \"#utility.yul\":1223:1247   */\n      tag_174\n        /* \"#utility.yul\":1241:1246   */\n      dup3\n        /* \"#utility.yul\":1223:1247   */\n      tag_133\n      jump\t// in\n    tag_174:\n        /* \"#utility.yul\":1212:1247   */\n      swap1\n      pop\n        /* \"#utility.yul\":1157:1253   */\n      swap2\n      swap1\n      pop\n      jump\t// out\n        /* \"#utility.yul\":1259:1381   */\n    tag_135:\n        /* \"#utility.yul\":1332:1356   */\n      tag_176\n        /* \"#utility.yul\":1350:1355   */\n      dup2\n        /* \"#utility.yul\":1332:1356   */\n      tag_134\n      jump\t// in\n    tag_176:\n        /* \"#utility.yul\":1325:1330   */\n      dup2\n        /* \"#utility.yul\":1322:1357   */\n      eq\n        /* \"#utility.yul\":1312:1375   */\n      tag_177\n      jumpi\n        /* \"#utility.yul\":1371:1372   */\n      0x00\n        /* \"#utility.yul\":1368:1369   */\n      dup1\n        /* \"#utility.yul\":1361:1373   */\n      revert\n        /* \"#utility.yul\":1312:1375   */\n    tag_177:\n        /* \"#utility.yul\":1259:1381   */\n      pop\n      jump\t// out\n        /* \"#utility.yul\":1387:1526   */\n    tag_136:\n        /* \"#utility.yul\":1433:1438   */\n      0x00\n        /* \"#utility.yul\":1471:1477   */\n      dup2\n        /* \"#utility.yul\":1458:1478   */\n      calldataload\n        /* \"#utility.yul\":1449:1478   */\n      swap1\n      pop\n        /* \"#utility.yul\":1487:1520   */\n      tag_179\n        /* \"#utility.yul\":1514:1519   */\n      dup2\n        /* \"#utility.yul\":1487:1520   */\n      tag_135\n      jump\t// in\n    tag_179:\n        /* \"#utility.yul\":1387:1526   */\n      swap3\n      swap2\n      pop\n      pop\n      jump\t// out\n        /* \"#utility.yul\":1532:1861   */\n    tag_23:\n        /* \"#utility.yul\":1591:1597   */\n      0x00\n        /* \"#utility.yul\":1640:1642   */\n      0x20\n        /* \"#utility.yul\":1628:1637   */\n      dup3\n        /* \"#utility.yul\":1619:1626   */\n      dup5\n        /* \"#utility.yul\":1615:1638   */\n      sub\n        /* \"#utility.yul\":1611:1643   */\n      slt\n        /* \"#utility.yul\":1608:1727   */\n      iszero\n      tag_181\n      jumpi\n        /* \"#utility.yul\":1646:1725   */\n      tag_182\n      tag_128\n      jump\t// in\n    tag_182:\n        /* \"#utility.yul\":1608:1727   */\n    tag_181:\n        /* \"#utility.yul\":1766:1767   */\n      0x00\n        /* \"#utility.yul\":1791:1844   */\n      tag_183\n        /* \"#utility.yul\":1836:1843   */\n      dup5\n        /* \"#utility.yul\":1827:1833   */\n      dup3\n        /* \"#utility.yul\":1816:1825   */\n      dup6\n        /* \"#utility.yul\":1812:1834   */\n      add\n        /* \"#utility.yul\":1791:1844   */\n      tag_136\n      jump\t// in\n    tag_183:\n        /* \"#utility.yul\":1781:1844   */\n      swap2\n      pop\n        /* \"#utility.yul\":1737:1854   */\n      pop\n        /* \"#utility.yul\":1532:1861   */\n      swap3\n      swap2\n      pop\n      pop\n      jump\t// out\n        /* \"#utility.yul\":1867:1957   */\n    tag_137:\n        /* \"#utility.yul\":1901:1908   */\n      0x00\n        /* \"#utility.yul\":1944:1949   */\n      dup2\n        /* \"#utility.yul\":1937:1950   */\n      iszero\n        /* \"#utility.yul\":1930:1951   */\n      iszero\n        /* \"#utility.yul\":1919:1951   */\n      swap1\n      pop\n        /* \"#utility.yul\":1867:1957   */\n      swap2\n      swap1\n      pop\n      jump\t// out\n        /* \"#utility.yul\":1963:2072   */\n    tag_138:\n        /* \"#utility.yul\":2044:2065   */\n      tag_186\n        /* \"#utility.yul\":2059:2064   */\n      dup2\n        /* \"#utility.yul\":2044:2065   */\n      tag_137\n      jump\t// in\n    tag_186:\n        /* \"#utility.yul\":2039:2042   */\n      dup3\n        /* \"#utility.yul\":2032:2066   */\n      mstore\n        /* \"#utility.yul\":1963:2072   */\n      pop\n      pop\n      jump\t// out\n        /* \"#utility.yul\":2078:2288   */\n    tag_26:\n        /* \"#utility.yul\":2165:2169   */\n      0x00\n        /* \"#utility.yul\":2203:2205   */\n      0x20\n        /* \"#utility.yul\":2192:2201   */\n      dup3\n        /* \"#utility.yul\":2188:2206   */\n      add\n        /* \"#utility.yul\":2180:2206   */\n      swap1\n      pop\n        /* \"#utility.yul\":2216:2281   */\n      tag_188\n        /* \"#utility.yul\":2278:2279   */\n      0x00\n        /* \"#utility.yul\":2267:2276   */\n      dup4\n        /* \"#utility.yul\":2263:2280   */\n      add\n        /* \"#utility.yul\":2254:2260   */\n      dup5\n        /* \"#utility.yul\":2216:2281   */\n      tag_138\n      jump\t// in\n    tag_188:\n        /* \"#utility.yul\":2078:2288   */\n      swap3\n      swap2\n      pop\n      pop\n      jump\t// out\n        /* \"#utility.yul\":2294:2412   */\n    tag_139:\n        /* \"#utility.yul\":2381:2405   */\n      tag_190\n        /* \"#utility.yul\":2399:2404   */\n      dup2\n        /* \"#utility.yul\":2381:2405   */\n      tag_130\n      jump\t// in\n    tag_190:\n        /* \"#utility.yul\":2376:2379   */\n      dup3\n        /* \"#utility.yul\":2369:2406   */\n      mstore\n        /* \"#utility.yul\":2294:2412   */\n      pop\n      pop\n      jump\t// out\n        /* \"#utility.yul\":2418:2640   */\n    tag_31:\n        /* \"#utility.yul\":2511:2515   */\n      0x00\n        /* \"#utility.yul\":2549:2551   */\n      0x20\n        /* \"#utility.yul\":2538:2547   */\n      dup3\n        /* \"#utility.yul\":2534:2552   */\n      add\n        /* \"#utility.yul\":2526:2552   */\n      swap1\n      pop\n        /* \"#utility.yul\":2562:2633   */\n      tag_192\n        /* \"#utility.yul\":2630:2631   */\n      0x00\n        /* \"#utility.yul\":2619:2628   */\n      dup4\n        /* \"#utility.yul\":2615:2632   */\n      add\n        /* \"#utility.yul\":2606:2612   */\n      dup5\n        /* \"#utility.yul\":2562:2633   */\n      tag_139\n      jump\t// in\n    tag_192:\n        /* \"#utility.yul\":2418:2640   */\n      swap3\n      swap2\n      pop\n      pop\n      jump\t// out\n        /* \"#utility.yul\":2646:2764   */\n    tag_140:\n        /* \"#utility.yul\":2733:2757   */\n      tag_194\n        /* \"#utility.yul\":2751:2756   */\n      dup2\n        /* \"#utility.yul\":2733:2757   */\n      tag_134\n      jump\t// in\n    tag_194:\n        /* \"#utility.yul\":2728:2731   */\n      dup3\n        /* \"#utility.yul\":2721:2758   */\n      mstore\n        /* \"#utility.yul\":2646:2764   */\n      pop\n      pop\n      jump\t// out\n        /* \"#utility.yul\":2770:2992   */\n    tag_36:\n        /* \"#utility.yul\":2863:2867   */\n      0x00\n        /* \"#utility.yul\":2901:2903   */\n      0x20\n        /* \"#utility.yul\":2890:2899   */\n      dup3\n        /* \"#utility.yul\":2886:2904   */\n      add\n        /* \"#utility.yul\":2878:2904   */\n      swap1\n      pop\n        /* \"#utility.yul\":2914:2985   */\n      tag_196\n        /* \"#utility.yul\":2982:2983   */\n      0x00\n        /* \"#utility.yul\":2971:2980   */\n      dup4\n        /* \"#utility.yul\":2967:2984   */\n      add\n        /* \"#utility.yul\":2958:2964   */\n      dup5\n        /* \"#utility.yul\":2914:2985   */\n      tag_140\n      jump\t// in\n    tag_196:\n        /* \"#utility.yul\":2770:2992   */\n      swap3\n      swap2\n      pop\n      pop\n      jump\t// out\n        /* \"#utility.yul\":2998:3097   */\n    tag_141:\n        /* \"#utility.yul\":3050:3056   */\n      0x00\n        /* \"#utility.yul\":3084:3089   */\n      dup2\n        /* \"#utility.yul\":3078:3090   */\n      mload\n        /* \"#utility.yul\":3068:3090   */\n      swap1\n      pop\n        /* \"#utility.yul\":2998:3097   */\n      swap2\n      swap1\n      pop\n      jump\t// out\n        /* \"#utility.yul\":3103:3272   */\n    tag_142:\n        /* \"#utility.yul\":3187:3198   */\n      0x00\n        /* \"#utility.yul\":3221:3227   */\n      dup3\n        /* \"#utility.yul\":3216:3219   */\n      dup3\n        /* \"#utility.yul\":3209:3228   */\n      mstore\n        /* \"#utility.yul\":3261:3265   */\n      0x20\n        /* \"#utility.yul\":3256:3259   */\n      dup3\n        /* \"#utility.yul\":3252:3266   */\n      add\n        /* \"#utility.yul\":3237:3266   */\n      swap1\n      pop\n        /* \"#utility.yul\":3103:3272   */\n      swap3\n      swap2\n      pop\n      pop\n      jump\t// out\n        /* \"#utility.yul\":3278:3585   */\n    tag_143:\n        /* \"#utility.yul\":3346:3347   */\n      0x00\n        /* \"#utility.yul\":3356:3469   */\n    tag_200:\n        /* \"#utility.yul\":3370:3376   */\n      dup4\n        /* \"#utility.yul\":3367:3368   */\n      dup2\n        /* \"#utility.yul\":3364:3377   */\n      lt\n        /* \"#utility.yul\":3356:3469   */\n      iszero\n      tag_202\n      jumpi\n        /* \"#utility.yul\":3455:3456   */\n      dup1\n        /* \"#utility.yul\":3450:3453   */\n      dup3\n        /* \"#utility.yul\":3446:3457   */\n      add\n        /* \"#utility.yul\":3440:3458   */\n      mload\n        /* \"#utility.yul\":3436:3437   */\n      dup2\n        /* \"#utility.yul\":3431:3434   */\n      dup5\n        /* \"#utility.yul\":3427:3438   */\n      add\n        /* \"#utility.yul\":3420:3459   */\n      mstore\n        /* \"#utility.yul\":3392:3394   */\n      0x20\n        /* \"#utility.yul\":3389:3390   */\n      dup2\n        /* \"#utility.yul\":3385:3395   */\n      add\n        /* \"#utility.yul\":3380:3395   */\n      swap1\n      pop\n        /* \"#utility.yul\":3356:3469   */\n      jump(tag_200)\n    tag_202:\n        /* \"#utility.yul\":3487:3493   */\n      dup4\n        /* \"#utility.yul\":3484:3485   */\n      dup2\n        /* \"#utility.yul\":3481:3494   */\n      gt\n        /* \"#utility.yul\":3478:3579   */\n      iszero\n      tag_203\n      jumpi\n        /* \"#utility.yul\":3567:3568   */\n      0x00\n        /* \"#utility.yul\":3558:3564   */\n      dup5\n        /* \"#utility.yul\":3553:3556   */\n      dup5\n        /* \"#utility.yul\":3549:3565   */\n      add\n        /* \"#utility.yul\":3542:3569   */\n      mstore\n        /* \"#utility.yul\":3478:3579   */\n    tag_203:\n        /* \"#utility.yul\":3327:3585   */\n      pop\n        /* \"#utility.yul\":3278:3585   */\n      pop\n      pop\n      pop\n      jump\t// out\n        /* \"#utility.yul\":3591:3693   */\n    tag_144:\n        /* \"#utility.yul\":3632:3638   */\n      0x00\n        /* \"#utility.yul\":3683:3685   */\n      0x1f\n        /* \"#utility.yul\":3679:3686   */\n      not\n        /* \"#utility.yul\":3674:3676   */\n      0x1f\n        /* \"#utility.yul\":3667:3672   */\n      dup4\n        /* \"#utility.yul\":3663:3677   */\n      add\n        /* \"#utility.yul\":3659:3687   */\n      and\n        /* \"#utility.yul\":3649:3687   */\n      swap1\n      pop\n        /* \"#utility.yul\":3591:3693   */\n      swap2\n      swap1\n      pop\n      jump\t// out\n        /* \"#utility.yul\":3699:4063   */\n    tag_145:\n        /* \"#utility.yul\":3787:3790   */\n      0x00\n        /* \"#utility.yul\":3815:3854   */\n      tag_206\n        /* \"#utility.yul\":3848:3853   */\n      dup3\n        /* \"#utility.yul\":3815:3854   */\n      tag_141\n      jump\t// in\n    tag_206:\n        /* \"#utility.yul\":3870:3941   */\n      tag_207\n        /* \"#utility.yul\":3934:3940   */\n      dup2\n        /* \"#utility.yul\":3929:3932   */\n      dup6\n        /* \"#utility.yul\":3870:3941   */\n      tag_142\n      jump\t// in\n    tag_207:\n        /* \"#utility.yul\":3863:3941   */\n      swap4\n      pop\n        /* \"#utility.yul\":3950:4002   */\n      tag_208\n        /* \"#utility.yul\":3995:4001   */\n      dup2\n        /* \"#utility.yul\":3990:3993   */\n      dup6\n        /* \"#utility.yul\":3983:3987   */\n      0x20\n        /* \"#utility.yul\":3976:3981   */\n      dup7\n        /* \"#utility.yul\":3972:3988   */\n      add\n        /* \"#utility.yul\":3950:4002   */\n      tag_143\n      jump\t// in\n    tag_208:\n        /* \"#utility.yul\":4027:4056   */\n      tag_209\n        /* \"#utility.yul\":4049:4055   */\n      dup2\n        /* \"#utility.yul\":4027:4056   */\n      tag_144\n      jump\t// in\n    tag_209:\n        /* \"#utility.yul\":4022:4025   */\n      dup5\n        /* \"#utility.yul\":4018:4057   */\n      add\n        /* \"#utility.yul\":4011:4057   */\n      swap2\n      pop\n        /* \"#utility.yul\":3791:4063   */\n      pop\n        /* \"#utility.yul\":3699:4063   */\n      swap3\n      swap2\n      pop\n      pop\n      jump\t// out\n        /* \"#utility.yul\":4069:4382   */\n    tag_41:\n        /* \"#utility.yul\":4182:4186   */\n      0x00\n        /* \"#utility.yul\":4220:4222   */\n      0x20\n        /* \"#utility.yul\":4209:4218   */\n      dup3\n        /* \"#utility.yul\":4205:4223   */\n      add\n        /* \"#utility.yul\":4197:4223   */\n      swap1\n      pop\n        /* \"#utility.yul\":4269:4278   */\n      dup2\n        /* \"#utility.yul\":4263:4267   */\n      dup2\n        /* \"#utility.yul\":4259:4279   */\n      sub\n        /* \"#utility.yul\":4255:4256   */\n      0x00\n        /* \"#utility.yul\":4244:4253   */\n      dup4\n        /* \"#utility.yul\":4240:4257   */\n      add\n        /* \"#utility.yul\":4233:4280   */\n      mstore\n        /* \"#utility.yul\":4297:4375   */\n      tag_211\n        /* \"#utility.yul\":4370:4374   */\n      dup2\n        /* \"#utility.yul\":4361:4367   */\n      dup5\n        /* \"#utility.yul\":4297:4375   */\n      tag_145\n      jump\t// in\n    tag_211:\n        /* \"#utility.yul\":4289:4375   */\n      swap1\n      pop\n        /* \"#utility.yul\":4069:4382   */\n      swap3\n      swap2\n      pop\n      pop\n      jump\t// out\n        /* \"#utility.yul\":4388:5131   */\n    tag_47:\n        /* \"#utility.yul\":4607:4611   */\n      0x00\n        /* \"#utility.yul\":4645:4648   */\n      0xa0\n        /* \"#utility.yul\":4634:4643   */\n      dup3\n        /* \"#utility.yul\":4630:4649   */\n      add\n        /* \"#utility.yul\":4622:4649   */\n      swap1\n      pop\n        /* \"#utility.yul\":4695:4704   */\n      dup2\n        /* \"#utility.yul\":4689:4693   */\n      dup2\n        /* \"#utility.yul\":4685:4705   */\n      sub\n        /* \"#utility.yul\":4681:4682   */\n      0x00\n        /* \"#utility.yul\":4670:4679   */\n      dup4\n        /* \"#utility.yul\":4666:4683   */\n      add\n        /* \"#utility.yul\":4659:4706   */\n      mstore\n        /* \"#utility.yul\":4723:4801   */\n      tag_213\n        /* \"#utility.yul\":4796:4800   */\n      dup2\n        /* \"#utility.yul\":4787:4793   */\n      dup9\n        /* \"#utility.yul\":4723:4801   */\n      tag_145\n      jump\t// in\n    tag_213:\n        /* \"#utility.yul\":4715:4801   */\n      swap1\n      pop\n        /* \"#utility.yul\":4811:4883   */\n      tag_214\n        /* \"#utility.yul\":4879:4881   */\n      0x20\n        /* \"#utility.yul\":4868:4877   */\n      dup4\n        /* \"#utility.yul\":4864:4882   */\n      add\n        /* \"#utility.yul\":4855:4861   */\n      dup8\n        /* \"#utility.yul\":4811:4883   */\n      tag_139\n      jump\t// in\n    tag_214:\n        /* \"#utility.yul\":4893:4965   */\n      tag_215\n        /* \"#utility.yul\":4961:4963   */\n      0x40\n        /* \"#utility.yul\":4950:4959   */\n      dup4\n        /* \"#utility.yul\":4946:4964   */\n      add\n        /* \"#utility.yul\":4937:4943   */\n      dup7\n        /* \"#utility.yul\":4893:4965   */\n      tag_140\n      jump\t// in\n    tag_215:\n        /* \"#utility.yul\":4975:5041   */\n      tag_216\n        /* \"#utility.yul\":5037:5039   */\n      0x60\n        /* \"#utility.yul\":5026:5035   */\n      dup4\n        /* \"#utility.yul\":5022:5040   */\n      add\n        /* \"#utility.yul\":5013:5019   */\n      dup6\n        /* \"#utility.yul\":4975:5041   */\n      tag_138\n      jump\t// in\n    tag_216:\n        /* \"#utility.yul\":5051:5124   */\n      tag_217\n        /* \"#utility.yul\":5119:5122   */\n      0x80\n        /* \"#utility.yul\":5108:5117   */\n      dup4\n        /* \"#utility.yul\":5104:5123   */\n      add\n        /* \"#utility.yul\":5095:5101   */\n      dup5\n        /* \"#utility.yul\":5051:5124   */\n      tag_139\n      jump\t// in\n    tag_217:\n        /* \"#utility.yul\":4388:5131   */\n      swap7\n      swap6\n      pop\n      pop\n      pop\n      pop\n      pop\n      pop\n      jump\t// out\n        /* \"#utility.yul\":5137:5254   */\n    tag_146:\n        /* \"#utility.yul\":5246:5247   */\n      0x00\n        /* \"#utility.yul\":5243:5244   */\n      dup1\n        /* \"#utility.yul\":5236:5248   */\n      revert\n        /* \"#utility.yul\":5260:5377   */\n    tag_147:\n        /* \"#utility.yul\":5369:5370   */\n      0x00\n        /* \"#utility.yul\":5366:5367   */\n      dup1\n        /* \"#utility.yul\":5359:5371   */\n      revert\n        /* \"#utility.yul\":5383:5563   */\n    tag_148:\n        /* \"#utility.yul\":5431:5508   */\n      0x4e487b7100000000000000000000000000000000000000000000000000000000\n        /* \"#utility.yul\":5428:5429   */\n      0x00\n        /* \"#utility.yul\":5421:5509   */\n      mstore\n        /* \"#utility.yul\":5528:5532   */\n      0x41\n        /* \"#utility.yul\":5525:5526   */\n      0x04\n        /* \"#utility.yul\":5518:5533   */\n      mstore\n        /* \"#utility.yul\":5552:5556   */\n      0x24\n        /* \"#utility.yul\":5549:5550   */\n      0x00\n        /* \"#utility.yul\":5542:5557   */\n      revert\n        /* \"#utility.yul\":5569:5850   */\n    tag_149:\n        /* \"#utility.yul\":5652:5679   */\n      tag_222\n        /* \"#utility.yul\":5674:5678   */\n      dup3\n        /* \"#utility.yul\":5652:5679   */\n      tag_144\n      jump\t// in\n    tag_222:\n        /* \"#utility.yul\":5644:5650   */\n      dup2\n        /* \"#utility.yul\":5640:5680   */\n      add\n        /* \"#utility.yul\":5782:5788   */\n      dup2\n        /* \"#utility.yul\":5770:5780   */\n      dup2\n        /* \"#utility.yul\":5767:5789   */\n      lt\n        /* \"#utility.yul\":5746:5764   */\n      0xffffffffffffffff\n        /* \"#utility.yul\":5734:5744   */\n      dup3\n        /* \"#utility.yul\":5731:5765   */\n      gt\n        /* \"#utility.yul\":5728:5790   */\n      or\n        /* \"#utility.yul\":5725:5813   */\n      iszero\n      tag_223\n      jumpi\n        /* \"#utility.yul\":5793:5811   */\n      tag_224\n      tag_148\n      jump\t// in\n    tag_224:\n        /* \"#utility.yul\":5725:5813   */\n    tag_223:\n        /* \"#utility.yul\":5833:5843   */\n      dup1\n        /* \"#utility.yul\":5829:5831   */\n      0x40\n        /* \"#utility.yul\":5822:5844   */\n      mstore\n        /* \"#utility.yul\":5612:5850   */\n      pop\n        /* \"#utility.yul\":5569:5850   */\n      pop\n      pop\n      jump\t// out\n        /* \"#utility.yul\":5856:5985   */\n    tag_150:\n        /* \"#utility.yul\":5890:5896   */\n      0x00\n        /* \"#utility.yul\":5917:5937   */\n      tag_226\n      tag_127\n      jump\t// in\n    tag_226:\n        /* \"#utility.yul\":5907:5937   */\n      swap1\n      pop\n        /* \"#utility.yul\":5946:5979   */\n      tag_227\n        /* \"#utility.yul\":5974:5978   */\n      dup3\n        /* \"#utility.yul\":5966:5972   */\n      dup3\n        /* \"#utility.yul\":5946:5979   */\n      tag_149\n      jump\t// in\n    tag_227:\n        /* \"#utility.yul\":5856:5985   */\n      swap2\n      swap1\n      pop\n      jump\t// out\n        /* \"#utility.yul\":5991:6299   */\n    tag_151:\n        /* \"#utility.yul\":6053:6057   */\n      0x00\n        /* \"#utility.yul\":6143:6161   */\n      0xffffffffffffffff\n        /* \"#utility.yul\":6135:6141   */\n      dup3\n        /* \"#utility.yul\":6132:6162   */\n      gt\n        /* \"#utility.yul\":6129:6185   */\n      iszero\n      tag_229\n      jumpi\n        /* \"#utility.yul\":6165:6183   */\n      tag_230\n      tag_148\n      jump\t// in\n    tag_230:\n        /* \"#utility.yul\":6129:6185   */\n    tag_229:\n        /* \"#utility.yul\":6203:6232   */\n      tag_231\n        /* \"#utility.yul\":6225:6231   */\n      dup3\n        /* \"#utility.yul\":6203:6232   */\n      tag_144\n      jump\t// in\n    tag_231:\n        /* \"#utility.yul\":6195:6232   */\n      swap1\n      pop\n        /* \"#utility.yul\":6287:6291   */\n      0x20\n        /* \"#utility.yul\":6281:6285   */\n      dup2\n        /* \"#utility.yul\":6277:6292   */\n      add\n        /* \"#utility.yul\":6269:6292   */\n      swap1\n      pop\n        /* \"#utility.yul\":5991:6299   */\n      swap2\n      swap1\n      pop\n      jump\t// out\n        /* \"#utility.yul\":6305:6459   */\n    tag_152:\n        /* \"#utility.yul\":6389:6395   */\n      dup3\n        /* \"#utility.yul\":6384:6387   */\n      dup2\n        /* \"#utility.yul\":6379:6382   */\n      dup4\n        /* \"#utility.yul\":6366:6396   */\n      calldatacopy\n        /* \"#utility.yul\":6451:6452   */\n      0x00\n        /* \"#utility.yul\":6442:6448   */\n      dup4\n        /* \"#utility.yul\":6437:6440   */\n      dup4\n        /* \"#utility.yul\":6433:6449   */\n      add\n        /* \"#utility.yul\":6426:6453   */\n      mstore\n        /* \"#utility.yul\":6305:6459   */\n      pop\n      pop\n      pop\n      jump\t// out\n        /* \"#utility.yul\":6465:6877   */\n    tag_153:\n        /* \"#utility.yul\":6543:6548   */\n      0x00\n        /* \"#utility.yul\":6568:6634   */\n      tag_234\n        /* \"#utility.yul\":6584:6633   */\n      tag_235\n        /* \"#utility.yul\":6626:6632   */\n      dup5\n        /* \"#utility.yul\":6584:6633   */\n      tag_151\n      jump\t// in\n    tag_235:\n        /* \"#utility.yul\":6568:6634   */\n      tag_150\n      jump\t// in\n    tag_234:\n        /* \"#utility.yul\":6559:6634   */\n      swap1\n      pop\n        /* \"#utility.yul\":6657:6663   */\n      dup3\n        /* \"#utility.yul\":6650:6655   */\n      dup2\n        /* \"#utility.yul\":6643:6664   */\n      mstore\n        /* \"#utility.yul\":6695:6699   */\n      0x20\n        /* \"#utility.yul\":6688:6693   */\n      dup2\n        /* \"#utility.yul\":6684:6700   */\n      add\n        /* \"#utility.yul\":6733:6736   */\n      dup5\n        /* \"#utility.yul\":6724:6730   */\n      dup5\n        /* \"#utility.yul\":6719:6722   */\n      dup5\n        /* \"#utility.yul\":6715:6731   */\n      add\n        /* \"#utility.yul\":6712:6737   */\n      gt\n        /* \"#utility.yul\":6709:6821   */\n      iszero\n      tag_236\n      jumpi\n        /* \"#utility.yul\":6740:6819   */\n      tag_237\n      tag_147\n      jump\t// in\n    tag_237:\n        /* \"#utility.yul\":6709:6821   */\n    tag_236:\n        /* \"#utility.yul\":6830:6871   */\n      tag_238\n        /* \"#utility.yul\":6864:6870   */\n      dup5\n        /* \"#utility.yul\":6859:6862   */\n      dup3\n        /* \"#utility.yul\":6854:6857   */\n      dup6\n        /* \"#utility.yul\":6830:6871   */\n      tag_152\n      jump\t// in\n    tag_238:\n        /* \"#utility.yul\":6549:6877   */\n      pop\n        /* \"#utility.yul\":6465:6877   */\n      swap4\n      swap3\n      pop\n      pop\n      pop\n      jump\t// out\n        /* \"#utility.yul\":6897:7237   */\n    tag_154:\n        /* \"#utility.yul\":6953:6958   */\n      0x00\n        /* \"#utility.yul\":7002:7005   */\n      dup3\n        /* \"#utility.yul\":6995:6999   */\n      0x1f\n        /* \"#utility.yul\":6987:6993   */\n      dup4\n        /* \"#utility.yul\":6983:7000   */\n      add\n        /* \"#utility.yul\":6979:7006   */\n      slt\n        /* \"#utility.yul\":6969:7091   */\n      tag_240\n      jumpi\n        /* \"#utility.yul\":7010:7089   */\n      tag_241\n      tag_146\n      jump\t// in\n    tag_241:\n        /* \"#utility.yul\":6969:7091   */\n    tag_240:\n        /* \"#utility.yul\":7127:7133   */\n      dup2\n        /* \"#utility.yul\":7114:7134   */\n      calldataload\n        /* \"#utility.yul\":7152:7231   */\n      tag_242\n        /* \"#utility.yul\":7227:7230   */\n      dup5\n        /* \"#utility.yul\":7219:7225   */\n      dup3\n        /* \"#utility.yul\":7212:7216   */\n      0x20\n        /* \"#utility.yul\":7204:7210   */\n      dup7\n        /* \"#utility.yul\":7200:7217   */\n      add\n        /* \"#utility.yul\":7152:7231   */\n      tag_153\n      jump\t// in\n    tag_242:\n        /* \"#utility.yul\":7143:7231   */\n      swap2\n      pop\n        /* \"#utility.yul\":6959:7237   */\n      pop\n        /* \"#utility.yul\":6897:7237   */\n      swap3\n      swap2\n      pop\n      pop\n      jump\t// out\n        /* \"#utility.yul\":7243:8042   */\n    tag_55:\n        /* \"#utility.yul\":7330:7336   */\n      0x00\n        /* \"#utility.yul\":7338:7344   */\n      dup1\n        /* \"#utility.yul\":7346:7352   */\n      0x00\n        /* \"#utility.yul\":7395:7397   */\n      0x60\n        /* \"#utility.yul\":7383:7392   */\n      dup5\n        /* \"#utility.yul\":7374:7381   */\n      dup7\n        /* \"#utility.yul\":7370:7393   */\n      sub\n        /* \"#utility.yul\":7366:7398   */\n      slt\n        /* \"#utility.yul\":7363:7482   */\n      iszero\n      tag_244\n      jumpi\n        /* \"#utility.yul\":7401:7480   */\n      tag_245\n      tag_128\n      jump\t// in\n    tag_245:\n        /* \"#utility.yul\":7363:7482   */\n    tag_244:\n        /* \"#utility.yul\":7549:7550   */\n      0x00\n        /* \"#utility.yul\":7538:7547   */\n      dup5\n        /* \"#utility.yul\":7534:7551   */\n      add\n        /* \"#utility.yul\":7521:7552   */\n      calldataload\n        /* \"#utility.yul\":7579:7597   */\n      0xffffffffffffffff\n        /* \"#utility.yul\":7571:7577   */\n      dup2\n        /* \"#utility.yul\":7568:7598   */\n      gt\n        /* \"#utility.yul\":7565:7682   */\n      iszero\n      tag_246\n      jumpi\n        /* \"#utility.yul\":7601:7680   */\n      tag_247\n      tag_129\n      jump\t// in\n    tag_247:\n        /* \"#utility.yul\":7565:7682   */\n    tag_246:\n        /* \"#utility.yul\":7706:7769   */\n      tag_248\n        /* \"#utility.yul\":7761:7768   */\n      dup7\n        /* \"#utility.yul\":7752:7758   */\n      dup3\n        /* \"#utility.yul\":7741:7750   */\n      dup8\n        /* \"#utility.yul\":7737:7759   */\n      add\n        /* \"#utility.yul\":7706:7769   */\n      tag_154\n      jump\t// in\n    tag_248:\n        /* \"#utility.yul\":7696:7769   */\n      swap4\n      pop\n        /* \"#utility.yul\":7492:7779   */\n      pop\n        /* \"#utility.yul\":7818:7820   */\n      0x20\n        /* \"#utility.yul\":7844:7897   */\n      tag_249\n        /* \"#utility.yul\":7889:7896   */\n      dup7\n        /* \"#utility.yul\":7880:7886   */\n      dup3\n        /* \"#utility.yul\":7869:7878   */\n      dup8\n        /* \"#utility.yul\":7865:7887   */\n      add\n        /* \"#utility.yul\":7844:7897   */\n      tag_132\n      jump\t// in\n    tag_249:\n        /* \"#utility.yul\":7834:7897   */\n      swap3\n      pop\n        /* \"#utility.yul\":7789:7907   */\n      pop\n        /* \"#utility.yul\":7946:7948   */\n      0x40\n        /* \"#utility.yul\":7972:8025   */\n      tag_250\n        /* \"#utility.yul\":8017:8024   */\n      dup7\n        /* \"#utility.yul\":8008:8014   */\n      dup3\n        /* \"#utility.yul\":7997:8006   */\n      dup8\n        /* \"#utility.yul\":7993:8015   */\n      add\n        /* \"#utility.yul\":7972:8025   */\n      tag_136\n      jump\t// in\n    tag_250:\n        /* \"#utility.yul\":7962:8025   */\n      swap2\n      pop\n        /* \"#utility.yul\":7917:8035   */\n      pop\n        /* \"#utility.yul\":7243:8042   */\n      swap3\n      pop\n      swap3\n      pop\n      swap3\n      jump\t// out\n        /* \"#utility.yul\":8048:8712   */\n    tag_71:\n        /* \"#utility.yul\":8253:8257   */\n      0x00\n        /* \"#utility.yul\":8291:8294   */\n      0xa0\n        /* \"#utility.yul\":8280:8289   */\n      dup3\n        /* \"#utility.yul\":8276:8295   */\n      add\n        /* \"#utility.yul\":8268:8295   */\n      swap1\n      pop\n        /* \"#utility.yul\":8305:8376   */\n      tag_252\n        /* \"#utility.yul\":8373:8374   */\n      0x00\n        /* \"#utility.yul\":8362:8371   */\n      dup4\n        /* \"#utility.yul\":8358:8375   */\n      add\n        /* \"#utility.yul\":8349:8355   */\n      dup9\n        /* \"#utility.yul\":8305:8376   */\n      tag_139\n      jump\t// in\n    tag_252:\n        /* \"#utility.yul\":8386:8458   */\n      tag_253\n        /* \"#utility.yul\":8454:8456   */\n      0x20\n        /* \"#utility.yul\":8443:8452   */\n      dup4\n        /* \"#utility.yul\":8439:8457   */\n      add\n        /* \"#utility.yul\":8430:8436   */\n      dup8\n        /* \"#utility.yul\":8386:8458   */\n      tag_139\n      jump\t// in\n    tag_253:\n        /* \"#utility.yul\":8468:8540   */\n      tag_254\n        /* \"#utility.yul\":8536:8538   */\n      0x40\n        /* \"#utility.yul\":8525:8534   */\n      dup4\n        /* \"#utility.yul\":8521:8539   */\n      add\n        /* \"#utility.yul\":8512:8518   */\n      dup7\n        /* \"#utility.yul\":8468:8540   */\n      tag_139\n      jump\t// in\n    tag_254:\n        /* \"#utility.yul\":8550:8622   */\n      tag_255\n        /* \"#utility.yul\":8618:8620   */\n      0x60\n        /* \"#utility.yul\":8607:8616   */\n      dup4\n        /* \"#utility.yul\":8603:8621   */\n      add\n        /* \"#utility.yul\":8594:8600   */\n      dup6\n        /* \"#utility.yul\":8550:8622   */\n      tag_139\n      jump\t// in\n    tag_255:\n        /* \"#utility.yul\":8632:8705   */\n      tag_256\n        /* \"#utility.yul\":8700:8703   */\n      0x80\n        /* \"#utility.yul\":8689:8698   */\n      dup4\n        /* \"#utility.yul\":8685:8704   */\n      add\n        /* \"#utility.yul\":8676:8682   */\n      dup5\n        /* \"#utility.yul\":8632:8705   */\n      tag_140\n      jump\t// in\n    tag_256:\n        /* \"#utility.yul\":8048:8712   */\n      swap7\n      swap6\n      pop\n      pop\n      pop\n      pop\n      pop\n      pop\n      jump\t// out\n        /* \"#utility.yul\":8718:8898   */\n    tag_77:\n        /* \"#utility.yul\":8766:8843   */\n      0x4e487b7100000000000000000000000000000000000000000000000000000000\n        /* \"#utility.yul\":8763:8764   */\n      0x00\n        /* \"#utility.yul\":8756:8844   */\n      mstore\n        /* \"#utility.yul\":8863:8867   */\n      0x32\n        /* \"#utility.yul\":8860:8861   */\n      0x04\n        /* \"#utility.yul\":8853:8868   */\n      mstore\n        /* \"#utility.yul\":8887:8891   */\n      0x24\n        /* \"#utility.yul\":8884:8885   */\n      0x00\n        /* \"#utility.yul\":8877:8892   */\n      revert\n        /* \"#utility.yul\":8904:9084   */\n    tag_155:\n        /* \"#utility.yul\":8952:9029   */\n      0x4e487b7100000000000000000000000000000000000000000000000000000000\n        /* \"#utility.yul\":8949:8950   */\n      0x00\n        /* \"#utility.yul\":8942:9030   */\n      mstore\n        /* \"#utility.yul\":9049:9053   */\n      0x12\n        /* \"#utility.yul\":9046:9047   */\n      0x04\n        /* \"#utility.yul\":9039:9054   */\n      mstore\n        /* \"#utility.yul\":9073:9077   */\n      0x24\n        /* \"#utility.yul\":9070:9071   */\n      0x00\n        /* \"#utility.yul\":9063:9078   */\n      revert\n        /* \"#utility.yul\":9090:9270   */\n    tag_156:\n        /* \"#utility.yul\":9138:9215   */\n      0x4e487b7100000000000000000000000000000000000000000000000000000000\n        /* \"#utility.yul\":9135:9136   */\n      0x00\n        /* \"#utility.yul\":9128:9216   */\n      mstore\n        /* \"#utility.yul\":9235:9239   */\n      0x11\n        /* \"#utility.yul\":9232:9233   */\n      0x04\n        /* \"#utility.yul\":9225:9240   */\n      mstore\n        /* \"#utility.yul\":9259:9263   */\n      0x24\n        /* \"#utility.yul\":9256:9257   */\n      0x00\n        /* \"#utility.yul\":9249:9264   */\n      revert\n        /* \"#utility.yul\":9276:9461   */\n    tag_80:\n        /* \"#utility.yul\":9316:9317   */\n      0x00\n        /* \"#utility.yul\":9333:9353   */\n      tag_261\n        /* \"#utility.yul\":9351:9352   */\n      dup3\n        /* \"#utility.yul\":9333:9353   */\n      tag_130\n      jump\t// in\n    tag_261:\n        /* \"#utility.yul\":9328:9353   */\n      swap2\n      pop\n        /* \"#utility.yul\":9367:9387   */\n      tag_262\n        /* \"#utility.yul\":9385:9386   */\n      dup4\n        /* \"#utility.yul\":9367:9387   */\n      tag_130\n      jump\t// in\n    tag_262:\n        /* \"#utility.yul\":9362:9387   */\n      swap3\n      pop\n        /* \"#utility.yul\":9406:9407   */\n      dup3\n        /* \"#utility.yul\":9396:9431   */\n      tag_263\n      jumpi\n        /* \"#utility.yul\":9411:9429   */\n      tag_264\n      tag_155\n      jump\t// in\n    tag_264:\n        /* \"#utility.yul\":9396:9431   */\n    tag_263:\n        /* \"#utility.yul\":9453:9454   */\n      dup3\n        /* \"#utility.yul\":9450:9451   */\n      dup3\n        /* \"#utility.yul\":9446:9455   */\n      div\n        /* \"#utility.yul\":9441:9455   */\n      swap1\n      pop\n        /* \"#utility.yul\":9276:9461   */\n      swap3\n      swap2\n      pop\n      pop\n      jump\t// out\n        /* \"#utility.yul\":9467:9647   */\n    tag_157:\n        /* \"#utility.yul\":9515:9592   */\n      0x4e487b7100000000000000000000000000000000000000000000000000000000\n        /* \"#utility.yul\":9512:9513   */\n      0x00\n        /* \"#utility.yul\":9505:9593   */\n      mstore\n        /* \"#utility.yul\":9612:9616   */\n      0x22\n        /* \"#utility.yul\":9609:9610   */\n      0x04\n        /* \"#utility.yul\":9602:9617   */\n      mstore\n        /* \"#utility.yul\":9636:9640   */\n      0x24\n        /* \"#utility.yul\":9633:9634   */\n      0x00\n        /* \"#utility.yul\":9626:9641   */\n      revert\n        /* \"#utility.yul\":9653:9973   */\n    tag_87:\n        /* \"#utility.yul\":9697:9703   */\n      0x00\n        /* \"#utility.yul\":9734:9735   */\n      0x02\n        /* \"#utility.yul\":9728:9732   */\n      dup3\n        /* \"#utility.yul\":9724:9736   */\n      div\n        /* \"#utility.yul\":9714:9736   */\n      swap1\n      pop\n        /* \"#utility.yul\":9781:9782   */\n      0x01\n        /* \"#utility.yul\":9775:9779   */\n      dup3\n        /* \"#utility.yul\":9771:9783   */\n      and\n        /* \"#utility.yul\":9802:9820   */\n      dup1\n        /* \"#utility.yul\":9792:9873   */\n      tag_267\n      jumpi\n        /* \"#utility.yul\":9858:9862   */\n      0x7f\n        /* \"#utility.yul\":9850:9856   */\n      dup3\n        /* \"#utility.yul\":9846:9863   */\n      and\n        /* \"#utility.yul\":9836:9863   */\n      swap2\n      pop\n        /* \"#utility.yul\":9792:9873   */\n    tag_267:\n        /* \"#utility.yul\":9920:9922   */\n      0x20\n        /* \"#utility.yul\":9912:9918   */\n      dup3\n        /* \"#utility.yul\":9909:9923   */\n      lt\n        /* \"#utility.yul\":9889:9907   */\n      dup2\n        /* \"#utility.yul\":9886:9924   */\n      eq\n        /* \"#utility.yul\":9883:9967   */\n      iszero\n      tag_268\n      jumpi\n        /* \"#utility.yul\":9939:9957   */\n      tag_269\n      tag_157\n      jump\t// in\n    tag_269:\n        /* \"#utility.yul\":9883:9967   */\n    tag_268:\n        /* \"#utility.yul\":9704:9973   */\n      pop\n        /* \"#utility.yul\":9653:9973   */\n      swap2\n      swap1\n      pop\n      jump\t// out\n        /* \"#utility.yul\":9979:10212   */\n    tag_108:\n        /* \"#utility.yul\":10018:10021   */\n      0x00\n        /* \"#utility.yul\":10041:10065   */\n      tag_271\n        /* \"#utility.yul\":10059:10064   */\n      dup3\n        /* \"#utility.yul\":10041:10065   */\n      tag_130\n      jump\t// in\n    tag_271:\n        /* \"#utility.yul\":10032:10065   */\n      swap2\n      pop\n        /* \"#utility.yul\":10087:10153   */\n      0xffffffffffffffffffffffffffffffffffffffffffffffffffffffffffffffff\n        /* \"#utility.yul\":10080:10085   */\n      dup3\n        /* \"#utility.yul\":10077:10154   */\n      eq\n        /* \"#utility.yul\":10074:10177   */\n      iszero\n      tag_272\n      jumpi\n        /* \"#utility.yul\":10157:10175   */\n      tag_273\n      tag_156\n      jump\t// in\n    tag_273:\n        /* \"#utility.yul\":10074:10177   */\n    tag_272:\n        /* \"#utility.yul\":10204:10205   */\n      0x01\n        /* \"#utility.yul\":10197:10202   */\n      dup3\n        /* \"#utility.yul\":10193:10206   */\n      add\n        /* \"#utility.yul\":10186:10206   */\n      swap1\n      pop\n        /* \"#utility.yul\":9979:10212   */\n      swap2\n      swap1\n      pop\n      jump\t// out\n\n    auxdata: 0xa2646970667358221220a7139c1984c4f70cc8d4098e2f0548faaf013bdb1161e72866419210b439450264736f6c63430008090033\n}\n","bytecode":{"linkReferences":{},"object":"60806040523480156200001157600080fd5b50604051620014633803806200146383398181016040528101906200003791906200038e565b81600260006101000a81548173ffffffffffffffffffffffffffffffffffffffff021916908373ffffffffffffffffffffffffffffffffffffffff16021790555082600381905550806000908051906020019062000097929190620000a1565b505050506200046e565b828054620000af9062000438565b90600052602060002090601f016020900481019282620000d357600085556200011f565b82601f10620000ee57805160ff19168380011785556200011f565b828001600101855582156200011f579182015b828111156200011e57825182559160200191906001019062000101565b5b5090506200012e919062000132565b5090565b5b808211156200014d57600081600090555060010162000133565b5090565b6000604051905090565b600080fd5b600080fd5b6000819050919050565b6200017a8162000165565b81146200018657600080fd5b50565b6000815190506200019a816200016f565b92915050565b600073ffffffffffffffffffffffffffffffffffffffff82169050919050565b6000620001cd82620001a0565b9050919050565b620001df81620001c0565b8114620001eb57600080fd5b50565b600081519050620001ff81620001d4565b92915050565b600080fd5b600080fd5b6000601f19601f8301169050919050565b7f4e487b7100000000000000000000000000000000000000000000000000000000600052604160045260246000fd5b6200025a826200020f565b810181811067ffffffffffffffff821117156200027c576200027b62000220565b5b80604052505050565b60006200029162000151565b90506200029f82826200024f565b919050565b600067ffffffffffffffff821115620002c257620002c162000220565b5b620002cd826200020f565b9050602081019050919050565b60005b83811015620002fa578082015181840152602081019050620002dd565b838111156200030a576000848401525b50505050565b6000620003276200032184620002a4565b62000285565b9050828152602081018484840111156200034657620003456200020a565b5b62000353848285620002da565b509392505050565b600082601f83011262000373576200037262000205565b5b81516200038584826020860162000310565b91505092915050565b600080600060608486031215620003aa57620003a96200015b565b5b6000620003ba8682870162000189565b9350506020620003cd86828701620001ee565b925050604084015167ffffffffffffffff811115620003f157620003f062000160565b5b620003ff868287016200035b565b9150509250925092565b7f4e487b7100000000000000000000000000000000000000000000000000000000600052602260045260246000fd5b600060028204905060018216806200045157607f821691505b6020821081141562000468576200046762000409565b5b50919050565b610fe5806200047e6000396000f3fe6080604052600436106100a75760003560e01c806382fde0931161006457806382fde093146101d45780638a9cfd55146101ff578063937e09b114610228578063d7bb99ba14610253578063d7d1bbdb1461025d578063fbbf93a014610286576100a7565b806303441006146100ac5780630a144391146100d55780633fad183414610112578063481c6a751461013d5780637284e4161461016857806381d12c5814610193575b600080fd5b3480156100b857600080fd5b506100d360048036038101906100ce91906109f9565b6102b5565b005b3480156100e157600080fd5b506100fc60048036038101906100f79190610a84565b6103ff565b6040516101099190610acc565b60405180910390f35b34801561011e57600080fd5b5061012761041f565b6040516101349190610af6565b60405180910390f35b34801561014957600080fd5b5061015261042c565b60405161015f9190610b20565b60405180910390f35b34801561017457600080fd5b5061017d610452565b60405161018a9190610bd4565b60405180910390f35b34801561019f57600080fd5b506101ba60048036038101906101b591906109f9565b6104e0565b6040516101cb959493929190610bf6565b60405180910390f35b3480156101e057600080fd5b506101e96105db565b6040516101f69190610af6565b60405180910390f35b34801561020b57600080fd5b5061022660048036038101906102219190610d85565b6105e1565b005b34801561023457600080fd5b5061023d6106f0565b60405161024a9190610af6565b60405180910390f35b61025b6106f6565b005b34801561026957600080fd5b50610284600480360381019061027f91906109f9565b610776565b005b34801561029257600080fd5b5061029b6108c3565b6040516102ac959493929190610df4565b60405180910390f35b600260009054906101000a900473ffffffffffffffffffffffffffffffffffffffff1673ffffffffffffffffffffffffffffffffffffffff163373ffffffffffffffffffffffffffffffffffffffff161461030f57600080fd5b60006001828154811061032557610324610e47565b5b9060005260206000209060050201905060026005546103449190610ed4565b81600301541161035357600080fd5b8060020160149054906101000a900460ff161561036f57600080fd5b8060020160009054906101000a900473ffffffffffffffffffffffffffffffffffffffff1673ffffffffffffffffffffffffffffffffffffffff166108fc82600101549081150290604051600060405180830381858888f193505050501580156103dd573d6000803e3d6000fd5b5060018160020160146101000a81548160ff0219169083151502179055505050565b60046020528060005260406000206000915054906101000a900460ff1681565b6000600180549050905090565b600260009054906101000a900473ffffffffffffffffffffffffffffffffffffffff1681565b6000805461045f90610f34565b80601f016020809104026020016040519081016040528092919081815260200182805461048b90610f34565b80156104d85780601f106104ad576101008083540402835291602001916104d8565b820191906000526020600020905b8154815290600101906020018083116104bb57829003601f168201915b505050505081565b600181815481106104f057600080fd5b906000526020600020906005020160009150905080600001805461051390610f34565b80601f016020809104026020016040519081016040528092919081815260200182805461053f90610f34565b801561058c5780601f106105615761010080835404028352916020019161058c565b820191906000526020600020905b81548152906001019060200180831161056f57829003601f168201915b5050505050908060010154908060020160009054906101000a900473ffffffffffffffffffffffffffffffffffffffff16908060020160149054906101000a900460ff16908060030154905085565b60055481565b600260009054906101000a900473ffffffffffffffffffffffffffffffffffffffff1673ffffffffffffffffffffffffffffffffffffffff163373ffffffffffffffffffffffffffffffffffffffff161461063b57600080fd5b60006001808160018154018082558091505003906000526020600020906005020190508381600001908051906020019061067692919061090c565b50828160010181905550818160020160006101000a81548173ffffffffffffffffffffffffffffffffffffffff021916908373ffffffffffffffffffffffffffffffffffffffff16021790555060008160020160146101000a81548160ff0219169083151502179055506000816003018190555050505050565b60035481565b600354341161070457600080fd5b6001600460003373ffffffffffffffffffffffffffffffffffffffff1673ffffffffffffffffffffffffffffffffffffffff16815260200190815260200160002060006101000a81548160ff0219169083151502179055506005600081548092919061076f90610f66565b9190505550565b60006001828154811061078c5761078b610e47565b5b90600052602060002090600502019050600460003373ffffffffffffffffffffffffffffffffffffffff1673ffffffffffffffffffffffffffffffffffffffff16815260200190815260200160002060009054906101000a900460ff166107f257600080fd5b8060040160003373ffffffffffffffffffffffffffffffffffffffff1673ffffffffffffffffffffffffffffffffffffffff16815260200190815260200160002060009054906101000a900460ff161561084b57600080fd5b60018160040160003373ffffffffffffffffffffffffffffffffffffffff1673ffffffffffffffffffffffffffffffffffffffff16815260200190815260200160002060006101000a81548160ff0219169083151502179055508060030160008154809291906108ba90610f66565b91905055505050565b600080600080600060035447600180549050600554600260009054906101000a900473ffffffffffffffffffffffffffffffffffffffff16945094509450945094509091929394565b82805461091890610f34565b90600052602060002090601f01602090048101928261093a5760008555610981565b82601f1061095357805160ff1916838001178555610981565b82800160010185558215610981579182015b82811115610980578251825591602001919060010190610965565b5b50905061098e9190610992565b5090565b5b808211156109ab576000816000905550600101610993565b5090565b6000604051905090565b600080fd5b600080fd5b6000819050919050565b6109d6816109c3565b81146109e157600080fd5b50565b6000813590506109f3816109cd565b92915050565b600060208284031215610a0f57610a0e6109b9565b5b6000610a1d848285016109e4565b91505092915050565b600073ffffffffffffffffffffffffffffffffffffffff82169050919050565b6000610a5182610a26565b9050919050565b610a6181610a46565b8114610a6c57600080fd5b50565b600081359050610a7e81610a58565b92915050565b600060208284031215610a9a57610a996109b9565b5b6000610aa884828501610a6f565b91505092915050565b60008115159050919050565b610ac681610ab1565b82525050565b6000602082019050610ae16000830184610abd565b92915050565b610af0816109c3565b82525050565b6000602082019050610b0b6000830184610ae7565b92915050565b610b1a81610a46565b82525050565b6000602082019050610b356000830184610b11565b92915050565b600081519050919050565b600082825260208201905092915050565b60005b83811015610b75578082015181840152602081019050610b5a565b83811115610b84576000848401525b50505050565b6000601f19601f8301169050919050565b6000610ba682610b3b565b610bb08185610b46565b9350610bc0818560208601610b57565b610bc981610b8a565b840191505092915050565b60006020820190508181036000830152610bee8184610b9b565b905092915050565b600060a0820190508181036000830152610c108188610b9b565b9050610c1f6020830187610ae7565b610c2c6040830186610b11565b610c396060830185610abd565b610c466080830184610ae7565b9695505050505050565b600080fd5b600080fd5b7f4e487b7100000000000000000000000000000000000000000000000000000000600052604160045260246000fd5b610c9282610b8a565b810181811067ffffffffffffffff82111715610cb157610cb0610c5a565b5b80604052505050565b6000610cc46109af565b9050610cd08282610c89565b919050565b600067ffffffffffffffff821115610cf057610cef610c5a565b5b610cf982610b8a565b9050602081019050919050565b82818337600083830152505050565b6000610d28610d2384610cd5565b610cba565b905082815260208101848484011115610d4457610d43610c55565b5b610d4f848285610d06565b509392505050565b600082601f830112610d6c57610d6b610c50565b5b8135610d7c848260208601610d15565b91505092915050565b600080600060608486031215610d9e57610d9d6109b9565b5b600084013567ffffffffffffffff811115610dbc57610dbb6109be565b5b610dc886828701610d57565b9350506020610dd9868287016109e4565b9250506040610dea86828701610a6f565b9150509250925092565b600060a082019050610e096000830188610ae7565b610e166020830187610ae7565b610e236040830186610ae7565b610e306060830185610ae7565b610e3d6080830184610b11565b9695505050505050565b7f4e487b7100000000000000000000000000000000000000000000000000000000600052603260045260246000fd5b7f4e487b7100000000000000000000000000000000000000000000000000000000600052601260045260246000fd5b7f4e487b7100000000000000000000000000000000000000000000000000000000600052601160045260246000fd5b6000610edf826109c3565b9150610eea836109c3565b925082610efa57610ef9610e76565b5b828204905092915050565b7f4e487b7100000000000000000000000000000000000000000000000000000000600052602260045260246000fd5b60006002820490506001821680610f4c57607f821691505b60208210811415610f6057610f5f610f05565b5b50919050565b6000610f71826109c3565b91507fffffffffffffffffffffffffffffffffffffffffffffffffffffffffffffffff821415610fa457610fa3610ea5565b5b60018201905091905056fea2646970667358221220a7139c1984c4f70cc8d4098e2f0548faaf013bdb1161e72866419210b439450264736f6c63430008090033","opcodes":"PUSH1 0x80 PUSH1 0x40 MSTORE CALLVALUE DUP1 ISZERO PUSH3 0x11 JUMPI PUSH1 0x0 DUP1 REVERT JUMPDEST POP PUSH1 0x40 MLOAD PUSH3 0x1463 CODESIZE SUB DUP1 PUSH3 0x1463 DUP4 CODECOPY DUP2 DUP2 ADD PUSH1 0x40 MSTORE DUP2 ADD SWAP1 PUSH3 0x37 SWAP2 SWAP1 PUSH3 0x38E JUMP JUMPDEST DUP2 PUSH1 0x2 PUSH1 0x0 PUSH2 0x100 EXP DUP2 SLOAD DUP2 PUSH20 0xFFFFFFFFFFFFFFFFFFFFFFFFFFFFFFFFFFFFFFFF MUL NOT AND SWAP1 DUP4 PUSH20 0xFFFFFFFFFFFFFFFFFFFFFFFFFFFFFFFFFFFFFFFF AND MUL OR SWAP1 SSTORE POP DUP3 PUSH1 0x3 DUP2 SWAP1 SSTORE POP DUP1 PUSH1 0x0 SWAP1 DUP1 MLOAD SWAP1 PUSH1 0x20 ADD SWAP1 PUSH3 0x97 SWAP3 SWAP2 SWAP1 PUSH3 0xA1 JUMP JUMPDEST POP POP POP POP PUSH3 0x46E JUMP JUMPDEST DUP3 DUP1 SLOAD PUSH3 0xAF SWAP1 PUSH3 0x438 JUMP JUMPDEST SWAP1 PUSH1 0x0 MSTORE PUSH1 0x20 PUSH1 0x0 KECCAK256 SWAP1 PUSH1 0x1F ADD PUSH1 0x20 SWAP1 DIV DUP2 ADD SWAP3 DUP3 PUSH3 0xD3 JUMPI PUSH1 0x0 DUP6 SSTORE PUSH3 0x11F JUMP JUMPDEST DUP3 PUSH1 0x1F LT PUSH3 0xEE JUMPI DUP1 MLOAD PUSH1 0xFF NOT AND DUP4 DUP1 ADD OR DUP6 SSTORE PUSH3 0x11F JUMP JUMPDEST DUP3 DUP1 ADD PUSH1 0x1 ADD DUP6 SSTORE DUP3 ISZERO PUSH3 0x11F JUMPI SWAP2 DUP3 ADD JUMPDEST DUP3 DUP2 GT ISZERO PUSH3 0x11E JUMPI DUP3 MLOAD DUP3 SSTORE SWAP2 PUSH1 0x20 ADD SWAP2 SWAP1 PUSH1 0x1 ADD SWAP1 PUSH3 0x101 JUMP JUMPDEST JUMPDEST POP SWAP1 POP PUSH3 0x12E SWAP2 SWAP1 PUSH3 0x132 JUMP JUMPDEST POP SWAP1 JUMP JUMPDEST JUMPDEST DUP1 DUP3 GT ISZERO PUSH3 0x14D JUMPI PUSH1 0x0 DUP2 PUSH1 0x0 SWAP1 SSTORE POP PUSH1 0x1 ADD PUSH3 0x133 JUMP JUMPDEST POP SWAP1 JUMP JUMPDEST PUSH1 0x0 PUSH1 0x40 MLOAD SWAP1 POP SWAP1 JUMP JUMPDEST PUSH1 0x0 DUP1 REVERT JUMPDEST PUSH1 0x0 DUP1 REVERT JUMPDEST PUSH1 0x0 DUP2 SWAP1 POP SWAP2 SWAP1 POP JUMP JUMPDEST PUSH3 0x17A DUP2 PUSH3 0x165 JUMP JUMPDEST DUP2 EQ PUSH3 0x186 JUMPI PUSH1 0x0 DUP1 REVERT JUMPDEST POP JUMP JUMPDEST PUSH1 0x0 DUP2 MLOAD SWAP1 POP PUSH3 0x19A DUP2 PUSH3 0x16F JUMP JUMPDEST SWAP3 SWAP2 POP POP JUMP JUMPDEST PUSH1 0x0 PUSH20 0xFFFFFFFFFFFFFFFFFFFFFFFFFFFFFFFFFFFFFFFF DUP3 AND SWAP1 POP SWAP2 SWAP1 POP JUMP JUMPDEST PUSH1 0x0 PUSH3 0x1CD DUP3 PUSH3 0x1A0 JUMP JUMPDEST SWAP1 POP SWAP2 SWAP1 POP JUMP JUMPDEST PUSH3 0x1DF DUP2 PUSH3 0x1C0 JUMP JUMPDEST DUP2 EQ PUSH3 0x1EB JUMPI PUSH1 0x0 DUP1 REVERT JUMPDEST POP JUMP JUMPDEST PUSH1 0x0 DUP2 MLOAD SWAP1 POP PUSH3 0x1FF DUP2 PUSH3 0x1D4 JUMP JUMPDEST SWAP3 SWAP2 POP POP JUMP JUMPDEST PUSH1 0x0 DUP1 REVERT JUMPDEST PUSH1 0x0 DUP1 REVERT JUMPDEST PUSH1 0x0 PUSH1 0x1F NOT PUSH1 0x1F DUP4 ADD AND SWAP1 POP SWAP2 SWAP1 POP JUMP JUMPDEST PUSH32 0x4E487B7100000000000000000000000000000000000000000000000000000000 PUSH1 0x0 MSTORE PUSH1 0x41 PUSH1 0x4 MSTORE PUSH1 0x24 PUSH1 0x0 REVERT JUMPDEST PUSH3 0x25A DUP3 PUSH3 0x20F JUMP JUMPDEST DUP2 ADD DUP2 DUP2 LT PUSH8 0xFFFFFFFFFFFFFFFF DUP3 GT OR ISZERO PUSH3 0x27C JUMPI PUSH3 0x27B PUSH3 0x220 JUMP JUMPDEST JUMPDEST DUP1 PUSH1 0x40 MSTORE POP POP POP JUMP JUMPDEST PUSH1 0x0 PUSH3 0x291 PUSH3 0x151 JUMP JUMPDEST SWAP1 POP PUSH3 0x29F DUP3 DUP3 PUSH3 0x24F JUMP JUMPDEST SWAP2 SWAP1 POP JUMP JUMPDEST PUSH1 0x0 PUSH8 0xFFFFFFFFFFFFFFFF DUP3 GT ISZERO PUSH3 0x2C2 JUMPI PUSH3 0x2C1 PUSH3 0x220 JUMP JUMPDEST JUMPDEST PUSH3 0x2CD DUP3 PUSH3 0x20F JUMP JUMPDEST SWAP1 POP PUSH1 0x20 DUP2 ADD SWAP1 POP SWAP2 SWAP1 POP JUMP JUMPDEST PUSH1 0x0 JUMPDEST DUP4 DUP2 LT ISZERO PUSH3 0x2FA JUMPI DUP1 DUP3 ADD MLOAD DUP2 DUP5 ADD MSTORE PUSH1 0x20 DUP2 ADD SWAP1 POP PUSH3 0x2DD JUMP JUMPDEST DUP4 DUP2 GT ISZERO PUSH3 0x30A JUMPI PUSH1 0x0 DUP5 DUP5 ADD MSTORE JUMPDEST POP POP POP POP JUMP JUMPDEST PUSH1 0x0 PUSH3 0x327 PUSH3 0x321 DUP5 PUSH3 0x2A4 JUMP JUMPDEST PUSH3 0x285 JUMP JUMPDEST SWAP1 POP DUP3 DUP2 MSTORE PUSH1 0x20 DUP2 ADD DUP5 DUP5 DUP5 ADD GT ISZERO PUSH3 0x346 JUMPI PUSH3 0x345 PUSH3 0x20A JUMP JUMPDEST JUMPDEST PUSH3 0x353 DUP5 DUP3 DUP6 PUSH3 0x2DA JUMP JUMPDEST POP SWAP4 SWAP3 POP POP POP JUMP JUMPDEST PUSH1 0x0 DUP3 PUSH1 0x1F DUP4 ADD SLT PUSH3 0x373 JUMPI PUSH3 0x372 PUSH3 0x205 JUMP JUMPDEST JUMPDEST DUP2 MLOAD PUSH3 0x385 DUP5 DUP3 PUSH1 0x20 DUP7 ADD PUSH3 0x310 JUMP JUMPDEST SWAP2 POP POP SWAP3 SWAP2 POP POP JUMP JUMPDEST PUSH1 0x0 DUP1 PUSH1 0x0 PUSH1 0x60 DUP5 DUP7 SUB SLT ISZERO PUSH3 0x3AA JUMPI PUSH3 0x3A9 PUSH3 0x15B JUMP JUMPDEST JUMPDEST PUSH1 0x0 PUSH3 0x3BA DUP7 DUP3 DUP8 ADD PUSH3 0x189 JUMP JUMPDEST SWAP4 POP POP PUSH1 0x20 PUSH3 0x3CD DUP7 DUP3 DUP8 ADD PUSH3 0x1EE JUMP JUMPDEST SWAP3 POP POP PUSH1 0x40 DUP5 ADD MLOAD PUSH8 0xFFFFFFFFFFFFFFFF DUP2 GT ISZERO PUSH3 0x3F1 JUMPI PUSH3 0x3F0 PUSH3 0x160 JUMP JUMPDEST JUMPDEST PUSH3 0x3FF DUP7 DUP3 DUP8 ADD PUSH3 0x35B JUMP JUMPDEST SWAP2 POP POP SWAP3 POP SWAP3 POP SWAP3 JUMP JUMPDEST PUSH32 0x4E487B7100000000000000000000000000000000000000000000000000000000 PUSH1 0x0 MSTORE PUSH1 0x22 PUSH1 0x4 MSTORE PUSH1 0x24 PUSH1 0x0 REVERT JUMPDEST PUSH1 0x0 PUSH1 0x2 DUP3 DIV SWAP1 POP PUSH1 0x1 DUP3 AND DUP1 PUSH3 0x451 JUMPI PUSH1 0x7F DUP3 AND SWAP2 POP JUMPDEST PUSH1 0x20 DUP3 LT DUP2 EQ ISZERO PUSH3 0x468 JUMPI PUSH3 0x467 PUSH3 0x409 JUMP JUMPDEST JUMPDEST POP SWAP2 SWAP1 POP JUMP JUMPDEST PUSH2 0xFE5 DUP1 PUSH3 0x47E PUSH1 0x0 CODECOPY PUSH1 0x0 RETURN INVALID PUSH1 0x80 PUSH1 0x40 MSTORE PUSH1 0x4 CALLDATASIZE LT PUSH2 0xA7 JUMPI PUSH1 0x0 CALLDATALOAD PUSH1 0xE0 SHR DUP1 PUSH4 0x82FDE093 GT PUSH2 0x64 JUMPI DUP1 PUSH4 0x82FDE093 EQ PUSH2 0x1D4 JUMPI DUP1 PUSH4 0x8A9CFD55 EQ PUSH2 0x1FF JUMPI DUP1 PUSH4 0x937E09B1 EQ PUSH2 0x228 JUMPI DUP1 PUSH4 0xD7BB99BA EQ PUSH2 0x253 JUMPI DUP1 PUSH4 0xD7D1BBDB EQ PUSH2 0x25D JUMPI DUP1 PUSH4 0xFBBF93A0 EQ PUSH2 0x286 JUMPI PUSH2 0xA7 JUMP JUMPDEST DUP1 PUSH4 0x3441006 EQ PUSH2 0xAC JUMPI DUP1 PUSH4 0xA144391 EQ PUSH2 0xD5 JUMPI DUP1 PUSH4 0x3FAD1834 EQ PUSH2 0x112 JUMPI DUP1 PUSH4 0x481C6A75 EQ PUSH2 0x13D JUMPI DUP1 PUSH4 0x7284E416 EQ PUSH2 0x168 JUMPI DUP1 PUSH4 0x81D12C58 EQ PUSH2 0x193 JUMPI JUMPDEST PUSH1 0x0 DUP1 REVERT JUMPDEST CALLVALUE DUP1 ISZERO PUSH2 0xB8 JUMPI PUSH1 0x0 DUP1 REVERT JUMPDEST POP PUSH2 0xD3 PUSH1 0x4 DUP1 CALLDATASIZE SUB DUP2 ADD SWAP1 PUSH2 0xCE SWAP2 SWAP1 PUSH2 0x9F9 JUMP JUMPDEST PUSH2 0x2B5 JUMP JUMPDEST STOP JUMPDEST CALLVALUE DUP1 ISZERO PUSH2 0xE1 JUMPI PUSH1 0x0 DUP1 REVERT JUMPDEST POP PUSH2 0xFC PUSH1 0x4 DUP1 CALLDATASIZE SUB DUP2 ADD SWAP1 PUSH2 0xF7 SWAP2 SWAP1 PUSH2 0xA84 JUMP JUMPDEST PUSH2 0x3FF JUMP JUMPDEST PUSH1 0x40 MLOAD PUSH2 0x109 SWAP2 SWAP1 PUSH2 0xACC JUMP JUMPDEST PUSH1 0x40 MLOAD DUP1 SWAP2 SUB SWAP1 RETURN JUMPDEST CALLVALUE DUP1 ISZERO PUSH2 0x11E JUMPI PUSH1 0x0 DUP1 REVERT JUMPDEST POP PUSH2 0x127 PUSH2 0x41F JUMP JUMPDEST PUSH1 0x40 MLOAD PUSH2 0x134 SWAP2 SWAP1 PUSH2 0xAF6 JUMP JUMPDEST PUSH1 0x40 MLOAD DUP1 SWAP2 SUB SWAP1 RETURN JUMPDEST CALLVALUE DUP1 ISZERO PUSH2 0x149 JUMPI PUSH1 0x0 DUP1 REVERT JUMPDEST POP PUSH2 0x152 PUSH2 0x42C JUMP JUMPDEST PUSH1 0x40 MLOAD PUSH2 0x15F SWAP2 SWAP1 PUSH2 0xB20 JUMP JUMPDEST PUSH1 0x40 MLOAD DUP1 SWAP2 SUB SWAP1 RETURN JUMPDEST CALLVALUE DUP1 ISZERO PUSH2 0x174 JUMPI PUSH1 0x0 DUP1 REVERT JUMPDEST POP PUSH2 0x17D PUSH2 0x452 JUMP JUMPDEST PUSH1 0x40 MLOAD PUSH2 0x18A SWAP2 SWAP1 PUSH2 0xBD4 JUMP JUMPDEST PUSH1 0x40 MLOAD DUP1 SWAP2 SUB SWAP1 RETURN JUMPDEST CALLVALUE DUP1 ISZERO PUSH2 0x19F JUMPI PUSH1 0x0 DUP1 REVERT JUMPDEST POP PUSH2 0x1BA PUSH1 0x4 DUP1 CALLDATASIZE SUB DUP2 ADD SWAP1 PUSH2 0x1B5 SWAP2 SWAP1 PUSH2 0x9F9 JUMP JUMPDEST PUSH2 0x4E0 JUMP JUMPDEST PUSH1 0x40 MLOAD PUSH2 0x1CB SWAP6 SWAP5 SWAP4 SWAP3 SWAP2 SWAP1 PUSH2 0xBF6 JUMP JUMPDEST PUSH1 0x40 MLOAD DUP1 SWAP2 SUB SWAP1 RETURN JUMPDEST CALLVALUE DUP1 ISZERO PUSH2 0x1E0 JUMPI PUSH1 0x0 DUP1 REVERT JUMPDEST POP PUSH2 0x1E9 PUSH2 0x5DB JUMP JUMPDEST PUSH1 0x40 MLOAD PUSH2 0x1F6 SWAP2 SWAP1 PUSH2 0xAF6 JUMP JUMPDEST PUSH1 0x40 MLOAD DUP1 SWAP2 SUB SWAP1 RETURN JUMPDEST CALLVALUE DUP1 ISZERO PUSH2 0x20B JUMPI PUSH1 0x0 DUP1 REVERT JUMPDEST POP PUSH2 0x226 PUSH1 0x4 DUP1 CALLDATASIZE SUB DUP2 ADD SWAP1 PUSH2 0x221 SWAP2 SWAP1 PUSH2 0xD85 JUMP JUMPDEST PUSH2 0x5E1 JUMP JUMPDEST STOP JUMPDEST CALLVALUE DUP1 ISZERO PUSH2 0x234 JUMPI PUSH1 0x0 DUP1 REVERT JUMPDEST POP PUSH2 0x23D PUSH2 0x6F0 JUMP JUMPDEST PUSH1 0x40 MLOAD PUSH2 0x24A SWAP2 SWAP1 PUSH2 0xAF6 JUMP JUMPDEST PUSH1 0x40 MLOAD DUP1 SWAP2 SUB SWAP1 RETURN JUMPDEST PUSH2 0x25B PUSH2 0x6F6 JUMP JUMPDEST STOP JUMPDEST CALLVALUE DUP1 ISZERO PUSH2 0x269 JUMPI PUSH1 0x0 DUP1 REVERT JUMPDEST POP PUSH2 0x284 PUSH1 0x4 DUP1 CALLDATASIZE SUB DUP2 ADD SWAP1 PUSH2 0x27F SWAP2 SWAP1 PUSH2 0x9F9 JUMP JUMPDEST PUSH2 0x776 JUMP JUMPDEST STOP JUMPDEST CALLVALUE DUP1 ISZERO PUSH2 0x292 JUMPI PUSH1 0x0 DUP1 REVERT JUMPDEST POP PUSH2 0x29B PUSH2 0x8C3 JUMP JUMPDEST PUSH1 0x40 MLOAD PUSH2 0x2AC SWAP6 SWAP5 SWAP4 SWAP3 SWAP2 SWAP1 PUSH2 0xDF4 JUMP JUMPDEST PUSH1 0x40 MLOAD DUP1 SWAP2 SUB SWAP1 RETURN JUMPDEST PUSH1 0x2 PUSH1 0x0 SWAP1 SLOAD SWAP1 PUSH2 0x100 EXP SWAP1 DIV PUSH20 0xFFFFFFFFFFFFFFFFFFFFFFFFFFFFFFFFFFFFFFFF AND PUSH20 0xFFFFFFFFFFFFFFFFFFFFFFFFFFFFFFFFFFFFFFFF AND CALLER PUSH20 0xFFFFFFFFFFFFFFFFFFFFFFFFFFFFFFFFFFFFFFFF AND EQ PUSH2 0x30F JUMPI PUSH1 0x0 DUP1 REVERT JUMPDEST PUSH1 0x0 PUSH1 0x1 DUP3 DUP2 SLOAD DUP2 LT PUSH2 0x325 JUMPI PUSH2 0x324 PUSH2 0xE47 JUMP JUMPDEST JUMPDEST SWAP1 PUSH1 0x0 MSTORE PUSH1 0x20 PUSH1 0x0 KECCAK256 SWAP1 PUSH1 0x5 MUL ADD SWAP1 POP PUSH1 0x2 PUSH1 0x5 SLOAD PUSH2 0x344 SWAP2 SWAP1 PUSH2 0xED4 JUMP JUMPDEST DUP2 PUSH1 0x3 ADD SLOAD GT PUSH2 0x353 JUMPI PUSH1 0x0 DUP1 REVERT JUMPDEST DUP1 PUSH1 0x2 ADD PUSH1 0x14 SWAP1 SLOAD SWAP1 PUSH2 0x100 EXP SWAP1 DIV PUSH1 0xFF AND ISZERO PUSH2 0x36F JUMPI PUSH1 0x0 DUP1 REVERT JUMPDEST DUP1 PUSH1 0x2 ADD PUSH1 0x0 SWAP1 SLOAD SWAP1 PUSH2 0x100 EXP SWAP1 DIV PUSH20 0xFFFFFFFFFFFFFFFFFFFFFFFFFFFFFFFFFFFFFFFF AND PUSH20 0xFFFFFFFFFFFFFFFFFFFFFFFFFFFFFFFFFFFFFFFF AND PUSH2 0x8FC DUP3 PUSH1 0x1 ADD SLOAD SWAP1 DUP2 ISZERO MUL SWAP1 PUSH1 0x40 MLOAD PUSH1 0x0 PUSH1 0x40 MLOAD DUP1 DUP4 SUB DUP2 DUP6 DUP9 DUP9 CALL SWAP4 POP POP POP POP ISZERO DUP1 ISZERO PUSH2 0x3DD JUMPI RETURNDATASIZE PUSH1 0x0 DUP1 RETURNDATACOPY RETURNDATASIZE PUSH1 0x0 REVERT JUMPDEST POP PUSH1 0x1 DUP2 PUSH1 0x2 ADD PUSH1 0x14 PUSH2 0x100 EXP DUP2 SLOAD DUP2 PUSH1 0xFF MUL NOT AND SWAP1 DUP4 ISZERO ISZERO MUL OR SWAP1 SSTORE POP POP POP JUMP JUMPDEST PUSH1 0x4 PUSH1 0x20 MSTORE DUP1 PUSH1 0x0 MSTORE PUSH1 0x40 PUSH1 0x0 KECCAK256 PUSH1 0x0 SWAP2 POP SLOAD SWAP1 PUSH2 0x100 EXP SWAP1 DIV PUSH1 0xFF AND DUP2 JUMP JUMPDEST PUSH1 0x0 PUSH1 0x1 DUP1 SLOAD SWAP1 POP SWAP1 POP SWAP1 JUMP JUMPDEST PUSH1 0x2 PUSH1 0x0 SWAP1 SLOAD SWAP1 PUSH2 0x100 EXP SWAP1 DIV PUSH20 0xFFFFFFFFFFFFFFFFFFFFFFFFFFFFFFFFFFFFFFFF AND DUP2 JUMP JUMPDEST PUSH1 0x0 DUP1 SLOAD PUSH2 0x45F SWAP1 PUSH2 0xF34 JUMP JUMPDEST DUP1 PUSH1 0x1F ADD PUSH1 0x20 DUP1 SWAP2 DIV MUL PUSH1 0x20 ADD PUSH1 0x40 MLOAD SWAP1 DUP2 ADD PUSH1 0x40 MSTORE DUP1 SWAP3 SWAP2 SWAP1 DUP2 DUP2 MSTORE PUSH1 0x20 ADD DUP3 DUP1 SLOAD PUSH2 0x48B SWAP1 PUSH2 0xF34 JUMP JUMPDEST DUP1 ISZERO PUSH2 0x4D8 JUMPI DUP1 PUSH1 0x1F LT PUSH2 0x4AD JUMPI PUSH2 0x100 DUP1 DUP4 SLOAD DIV MUL DUP4 MSTORE SWAP2 PUSH1 0x20 ADD SWAP2 PUSH2 0x4D8 JUMP JUMPDEST DUP3 ADD SWAP2 SWAP1 PUSH1 0x0 MSTORE PUSH1 0x20 PUSH1 0x0 KECCAK256 SWAP1 JUMPDEST DUP2 SLOAD DUP2 MSTORE SWAP1 PUSH1 0x1 ADD SWAP1 PUSH1 0x20 ADD DUP1 DUP4 GT PUSH2 0x4BB JUMPI DUP3 SWAP1 SUB PUSH1 0x1F AND DUP3 ADD SWAP2 JUMPDEST POP POP POP POP POP DUP2 JUMP JUMPDEST PUSH1 0x1 DUP2 DUP2 SLOAD DUP2 LT PUSH2 0x4F0 JUMPI PUSH1 0x0 DUP1 REVERT JUMPDEST SWAP1 PUSH1 0x0 MSTORE PUSH1 0x20 PUSH1 0x0 KECCAK256 SWAP1 PUSH1 0x5 MUL ADD PUSH1 0x0 SWAP2 POP SWAP1 POP DUP1 PUSH1 0x0 ADD DUP1 SLOAD PUSH2 0x513 SWAP1 PUSH2 0xF34 JUMP JUMPDEST DUP1 PUSH1 0x1F ADD PUSH1 0x20 DUP1 SWAP2 DIV MUL PUSH1 0x20 ADD PUSH1 0x40 MLOAD SWAP1 DUP2 ADD PUSH1 0x40 MSTORE DUP1 SWAP3 SWAP2 SWAP1 DUP2 DUP2 MSTORE PUSH1 0x20 ADD DUP3 DUP1 SLOAD PUSH2 0x53F SWAP1 PUSH2 0xF34 JUMP JUMPDEST DUP1 ISZERO PUSH2 0x58C JUMPI DUP1 PUSH1 0x1F LT PUSH2 0x561 JUMPI PUSH2 0x100 DUP1 DUP4 SLOAD DIV MUL DUP4 MSTORE SWAP2 PUSH1 0x20 ADD SWAP2 PUSH2 0x58C JUMP JUMPDEST DUP3 ADD SWAP2 SWAP1 PUSH1 0x0 MSTORE PUSH1 0x20 PUSH1 0x0 KECCAK256 SWAP1 JUMPDEST DUP2 SLOAD DUP2 MSTORE SWAP1 PUSH1 0x1 ADD SWAP1 PUSH1 0x20 ADD DUP1 DUP4 GT PUSH2 0x56F JUMPI DUP3 SWAP1 SUB PUSH1 0x1F AND DUP3 ADD SWAP2 JUMPDEST POP POP POP POP POP SWAP1 DUP1 PUSH1 0x1 ADD SLOAD SWAP1 DUP1 PUSH1 0x2 ADD PUSH1 0x0 SWAP1 SLOAD SWAP1 PUSH2 0x100 EXP SWAP1 DIV PUSH20 0xFFFFFFFFFFFFFFFFFFFFFFFFFFFFFFFFFFFFFFFF AND SWAP1 DUP1 PUSH1 0x2 ADD PUSH1 0x14 SWAP1 SLOAD SWAP1 PUSH2 0x100 EXP SWAP1 DIV PUSH1 0xFF AND SWAP1 DUP1 PUSH1 0x3 ADD SLOAD SWAP1 POP DUP6 JUMP JUMPDEST PUSH1 0x5 SLOAD DUP2 JUMP JUMPDEST PUSH1 0x2 PUSH1 0x0 SWAP1 SLOAD SWAP1 PUSH2 0x100 EXP SWAP1 DIV PUSH20 0xFFFFFFFFFFFFFFFFFFFFFFFFFFFFFFFFFFFFFFFF AND PUSH20 0xFFFFFFFFFFFFFFFFFFFFFFFFFFFFFFFFFFFFFFFF AND CALLER PUSH20 0xFFFFFFFFFFFFFFFFFFFFFFFFFFFFFFFFFFFFFFFF AND EQ PUSH2 0x63B JUMPI PUSH1 0x0 DUP1 REVERT JUMPDEST PUSH1 0x0 PUSH1 0x1 DUP1 DUP2 PUSH1 0x1 DUP2 SLOAD ADD DUP1 DUP3 SSTORE DUP1 SWAP2 POP POP SUB SWAP1 PUSH1 0x0 MSTORE PUSH1 0x20 PUSH1 0x0 KECCAK256 SWAP1 PUSH1 0x5 MUL ADD SWAP1 POP DUP4 DUP2 PUSH1 0x0 ADD SWAP1 DUP1 MLOAD SWAP1 PUSH1 0x20 ADD SWAP1 PUSH2 0x676 SWAP3 SWAP2 SWAP1 PUSH2 0x90C JUMP JUMPDEST POP DUP3 DUP2 PUSH1 0x1 ADD DUP2 SWAP1 SSTORE POP DUP2 DUP2 PUSH1 0x2 ADD PUSH1 0x0 PUSH2 0x100 EXP DUP2 SLOAD DUP2 PUSH20 0xFFFFFFFFFFFFFFFFFFFFFFFFFFFFFFFFFFFFFFFF MUL NOT AND SWAP1 DUP4 PUSH20 0xFFFFFFFFFFFFFFFFFFFFFFFFFFFFFFFFFFFFFFFF AND MUL OR SWAP1 SSTORE POP PUSH1 0x0 DUP2 PUSH1 0x2 ADD PUSH1 0x14 PUSH2 0x100 EXP DUP2 SLOAD DUP2 PUSH1 0xFF MUL NOT AND SWAP1 DUP4 ISZERO ISZERO MUL OR SWAP1 SSTORE POP PUSH1 0x0 DUP2 PUSH1 0x3 ADD DUP2 SWAP1 SSTORE POP POP POP POP POP JUMP JUMPDEST PUSH1 0x3 SLOAD DUP2 JUMP JUMPDEST PUSH1 0x3 SLOAD CALLVALUE GT PUSH2 0x704 JUMPI PUSH1 0x0 DUP1 REVERT JUMPDEST PUSH1 0x1 PUSH1 0x4 PUSH1 0x0 CALLER PUSH20 0xFFFFFFFFFFFFFFFFFFFFFFFFFFFFFFFFFFFFFFFF AND PUSH20 0xFFFFFFFFFFFFFFFFFFFFFFFFFFFFFFFFFFFFFFFF AND DUP2 MSTORE PUSH1 0x20 ADD SWAP1 DUP2 MSTORE PUSH1 0x20 ADD PUSH1 0x0 KECCAK256 PUSH1 0x0 PUSH2 0x100 EXP DUP2 SLOAD DUP2 PUSH1 0xFF MUL NOT AND SWAP1 DUP4 ISZERO ISZERO MUL OR SWAP1 SSTORE POP PUSH1 0x5 PUSH1 0x0 DUP2 SLOAD DUP1 SWAP3 SWAP2 SWAP1 PUSH2 0x76F SWAP1 PUSH2 0xF66 JUMP JUMPDEST SWAP2 SWAP1 POP SSTORE POP JUMP JUMPDEST PUSH1 0x0 PUSH1 0x1 DUP3 DUP2 SLOAD DUP2 LT PUSH2 0x78C JUMPI PUSH2 0x78B PUSH2 0xE47 JUMP JUMPDEST JUMPDEST SWAP1 PUSH1 0x0 MSTORE PUSH1 0x20 PUSH1 0x0 KECCAK256 SWAP1 PUSH1 0x5 MUL ADD SWAP1 POP PUSH1 0x4 PUSH1 0x0 CALLER PUSH20 0xFFFFFFFFFFFFFFFFFFFFFFFFFFFFFFFFFFFFFFFF AND PUSH20 0xFFFFFFFFFFFFFFFFFFFFFFFFFFFFFFFFFFFFFFFF AND DUP2 MSTORE PUSH1 0x20 ADD SWAP1 DUP2 MSTORE PUSH1 0x20 ADD PUSH1 0x0 KECCAK256 PUSH1 0x0 SWAP1 SLOAD SWAP1 PUSH2 0x100 EXP SWAP1 DIV PUSH1 0xFF AND PUSH2 0x7F2 JUMPI PUSH1 0x0 DUP1 REVERT JUMPDEST DUP1 PUSH1 0x4 ADD PUSH1 0x0 CALLER PUSH20 0xFFFFFFFFFFFFFFFFFFFFFFFFFFFFFFFFFFFFFFFF AND PUSH20 0xFFFFFFFFFFFFFFFFFFFFFFFFFFFFFFFFFFFFFFFF AND DUP2 MSTORE PUSH1 0x20 ADD SWAP1 DUP2 MSTORE PUSH1 0x20 ADD PUSH1 0x0 KECCAK256 PUSH1 0x0 SWAP1 SLOAD SWAP1 PUSH2 0x100 EXP SWAP1 DIV PUSH1 0xFF AND ISZERO PUSH2 0x84B JUMPI PUSH1 0x0 DUP1 REVERT JUMPDEST PUSH1 0x1 DUP2 PUSH1 0x4 ADD PUSH1 0x0 CALLER PUSH20 0xFFFFFFFFFFFFFFFFFFFFFFFFFFFFFFFFFFFFFFFF AND PUSH20 0xFFFFFFFFFFFFFFFFFFFFFFFFFFFFFFFFFFFFFFFF AND DUP2 MSTORE PUSH1 0x20 ADD SWAP1 DUP2 MSTORE PUSH1 0x20 ADD PUSH1 0x0 KECCAK256 PUSH1 0x0 PUSH2 0x100 EXP DUP2 SLOAD DUP2 PUSH1 0xFF MUL NOT AND SWAP1 DUP4 ISZERO ISZERO MUL OR SWAP1 SSTORE POP DUP1 PUSH1 0x3 ADD PUSH1 0x0 DUP2 SLOAD DUP1 SWAP3 SWAP2 SWAP1 PUSH2 0x8BA SWAP1 PUSH2 0xF66 JUMP JUMPDEST SWAP2 SWAP1 POP SSTORE POP POP POP JUMP JUMPDEST PUSH1 0x0 DUP1 PUSH1 0x0 DUP1 PUSH1 0x0 PUSH1 0x3 SLOAD SELFBALANCE PUSH1 0x1 DUP1 SLOAD SWAP1 POP PUSH1 0x5 SLOAD PUSH1 0x2 PUSH1 0x0 SWAP1 SLOAD SWAP1 PUSH2 0x100 EXP SWAP1 DIV PUSH20 0xFFFFFFFFFFFFFFFFFFFFFFFFFFFFFFFFFFFFFFFF AND SWAP5 POP SWAP5 POP SWAP5 POP SWAP5 POP SWAP5 POP SWAP1 SWAP2 SWAP3 SWAP4 SWAP5 JUMP JUMPDEST DUP3 DUP1 SLOAD PUSH2 0x918 SWAP1 PUSH2 0xF34 JUMP JUMPDEST SWAP1 PUSH1 0x0 MSTORE PUSH1 0x20 PUSH1 0x0 KECCAK256 SWAP1 PUSH1 0x1F ADD PUSH1 0x20 SWAP1 DIV DUP2 ADD SWAP3 DUP3 PUSH2 0x93A JUMPI PUSH1 0x0 DUP6 SSTORE PUSH2 0x981 JUMP JUMPDEST DUP3 PUSH1 0x1F LT PUSH2 0x953 JUMPI DUP1 MLOAD PUSH1 0xFF NOT AND DUP4 DUP1 ADD OR DUP6 SSTORE PUSH2 0x981 JUMP JUMPDEST DUP3 DUP1 ADD PUSH1 0x1 ADD DUP6 SSTORE DUP3 ISZERO PUSH2 0x981 JUMPI SWAP2 DUP3 ADD JUMPDEST DUP3 DUP2 GT ISZERO PUSH2 0x980 JUMPI DUP3 MLOAD DUP3 SSTORE SWAP2 PUSH1 0x20 ADD SWAP2 SWAP1 PUSH1 0x1 ADD SWAP1 PUSH2 0x965 JUMP JUMPDEST JUMPDEST POP SWAP1 POP PUSH2 0x98E SWAP2 SWAP1 PUSH2 0x992 JUMP JUMPDEST POP SWAP1 JUMP JUMPDEST JUMPDEST DUP1 DUP3 GT ISZERO PUSH2 0x9AB JUMPI PUSH1 0x0 DUP2 PUSH1 0x0 SWAP1 SSTORE POP PUSH1 0x1 ADD PUSH2 0x993 JUMP JUMPDEST POP SWAP1 JUMP JUMPDEST PUSH1 0x0 PUSH1 0x40 MLOAD SWAP1 POP SWAP1 JUMP JUMPDEST PUSH1 0x0 DUP1 REVERT JUMPDEST PUSH1 0x0 DUP1 REVERT JUMPDEST PUSH1 0x0 DUP2 SWAP1 POP SWAP2 SWAP1 POP JUMP JUMPDEST PUSH2 0x9D6 DUP2 PUSH2 0x9C3 JUMP JUMPDEST DUP2 EQ PUSH2 0x9E1 JUMPI PUSH1 0x0 DUP1 REVERT JUMPDEST POP JUMP JUMPDEST PUSH1 0x0 DUP2 CALLDATALOAD SWAP1 POP PUSH2 0x9F3 DUP2 PUSH2 0x9CD JUMP JUMPDEST SWAP3 SWAP2 POP POP JUMP JUMPDEST PUSH1 0x0 PUSH1 0x20 DUP3 DUP5 SUB SLT ISZERO PUSH2 0xA0F JUMPI PUSH2 0xA0E PUSH2 0x9B9 JUMP JUMPDEST JUMPDEST PUSH1 0x0 PUSH2 0xA1D DUP5 DUP3 DUP6 ADD PUSH2 0x9E4 JUMP JUMPDEST SWAP2 POP POP SWAP3 SWAP2 POP POP JUMP JUMPDEST PUSH1 0x0 PUSH20 0xFFFFFFFFFFFFFFFFFFFFFFFFFFFFFFFFFFFFFFFF DUP3 AND SWAP1 POP SWAP2 SWAP1 POP JUMP JUMPDEST PUSH1 0x0 PUSH2 0xA51 DUP3 PUSH2 0xA26 JUMP JUMPDEST SWAP1 POP SWAP2 SWAP1 POP JUMP JUMPDEST PUSH2 0xA61 DUP2 PUSH2 0xA46 JUMP JUMPDEST DUP2 EQ PUSH2 0xA6C JUMPI PUSH1 0x0 DUP1 REVERT JUMPDEST POP JUMP JUMPDEST PUSH1 0x0 DUP2 CALLDATALOAD SWAP1 POP PUSH2 0xA7E DUP2 PUSH2 0xA58 JUMP JUMPDEST SWAP3 SWAP2 POP POP JUMP JUMPDEST PUSH1 0x0 PUSH1 0x20 DUP3 DUP5 SUB SLT ISZERO PUSH2 0xA9A JUMPI PUSH2 0xA99 PUSH2 0x9B9 JUMP JUMPDEST JUMPDEST PUSH1 0x0 PUSH2 0xAA8 DUP5 DUP3 DUP6 ADD PUSH2 0xA6F JUMP JUMPDEST SWAP2 POP POP SWAP3 SWAP2 POP POP JUMP JUMPDEST PUSH1 0x0 DUP2 ISZERO ISZERO SWAP1 POP SWAP2 SWAP1 POP JUMP JUMPDEST PUSH2 0xAC6 DUP2 PUSH2 0xAB1 JUMP JUMPDEST DUP3 MSTORE POP POP JUMP JUMPDEST PUSH1 0x0 PUSH1 0x20 DUP3 ADD SWAP1 POP PUSH2 0xAE1 PUSH1 0x0 DUP4 ADD DUP5 PUSH2 0xABD JUMP JUMPDEST SWAP3 SWAP2 POP POP JUMP JUMPDEST PUSH2 0xAF0 DUP2 PUSH2 0x9C3 JUMP JUMPDEST DUP3 MSTORE POP POP JUMP JUMPDEST PUSH1 0x0 PUSH1 0x20 DUP3 ADD SWAP1 POP PUSH2 0xB0B PUSH1 0x0 DUP4 ADD DUP5 PUSH2 0xAE7 JUMP JUMPDEST SWAP3 SWAP2 POP POP JUMP JUMPDEST PUSH2 0xB1A DUP2 PUSH2 0xA46 JUMP JUMPDEST DUP3 MSTORE POP POP JUMP JUMPDEST PUSH1 0x0 PUSH1 0x20 DUP3 ADD SWAP1 POP PUSH2 0xB35 PUSH1 0x0 DUP4 ADD DUP5 PUSH2 0xB11 JUMP JUMPDEST SWAP3 SWAP2 POP POP JUMP JUMPDEST PUSH1 0x0 DUP2 MLOAD SWAP1 POP SWAP2 SWAP1 POP JUMP JUMPDEST PUSH1 0x0 DUP3 DUP3 MSTORE PUSH1 0x20 DUP3 ADD SWAP1 POP SWAP3 SWAP2 POP POP JUMP JUMPDEST PUSH1 0x0 JUMPDEST DUP4 DUP2 LT ISZERO PUSH2 0xB75 JUMPI DUP1 DUP3 ADD MLOAD DUP2 DUP5 ADD MSTORE PUSH1 0x20 DUP2 ADD SWAP1 POP PUSH2 0xB5A JUMP JUMPDEST DUP4 DUP2 GT ISZERO PUSH2 0xB84 JUMPI PUSH1 0x0 DUP5 DUP5 ADD MSTORE JUMPDEST POP POP POP POP JUMP JUMPDEST PUSH1 0x0 PUSH1 0x1F NOT PUSH1 0x1F DUP4 ADD AND SWAP1 POP SWAP2 SWAP1 POP JUMP JUMPDEST PUSH1 0x0 PUSH2 0xBA6 DUP3 PUSH2 0xB3B JUMP JUMPDEST PUSH2 0xBB0 DUP2 DUP6 PUSH2 0xB46 JUMP JUMPDEST SWAP4 POP PUSH2 0xBC0 DUP2 DUP6 PUSH1 0x20 DUP7 ADD PUSH2 0xB57 JUMP JUMPDEST PUSH2 0xBC9 DUP2 PUSH2 0xB8A JUMP JUMPDEST DUP5 ADD SWAP2 POP POP SWAP3 SWAP2 POP POP JUMP JUMPDEST PUSH1 0x0 PUSH1 0x20 DUP3 ADD SWAP1 POP DUP2 DUP2 SUB PUSH1 0x0 DUP4 ADD MSTORE PUSH2 0xBEE DUP2 DUP5 PUSH2 0xB9B JUMP JUMPDEST SWAP1 POP SWAP3 SWAP2 POP POP JUMP JUMPDEST PUSH1 0x0 PUSH1 0xA0 DUP3 ADD SWAP1 POP DUP2 DUP2 SUB PUSH1 0x0 DUP4 ADD MSTORE PUSH2 0xC10 DUP2 DUP9 PUSH2 0xB9B JUMP JUMPDEST SWAP1 POP PUSH2 0xC1F PUSH1 0x20 DUP4 ADD DUP8 PUSH2 0xAE7 JUMP JUMPDEST PUSH2 0xC2C PUSH1 0x40 DUP4 ADD DUP7 PUSH2 0xB11 JUMP JUMPDEST PUSH2 0xC39 PUSH1 0x60 DUP4 ADD DUP6 PUSH2 0xABD JUMP JUMPDEST PUSH2 0xC46 PUSH1 0x80 DUP4 ADD DUP5 PUSH2 0xAE7 JUMP JUMPDEST SWAP7 SWAP6 POP POP POP POP POP POP JUMP JUMPDEST PUSH1 0x0 DUP1 REVERT JUMPDEST PUSH1 0x0 DUP1 REVERT JUMPDEST PUSH32 0x4E487B7100000000000000000000000000000000000000000000000000000000 PUSH1 0x0 MSTORE PUSH1 0x41 PUSH1 0x4 MSTORE PUSH1 0x24 PUSH1 0x0 REVERT JUMPDEST PUSH2 0xC92 DUP3 PUSH2 0xB8A JUMP JUMPDEST DUP2 ADD DUP2 DUP2 LT PUSH8 0xFFFFFFFFFFFFFFFF DUP3 GT OR ISZERO PUSH2 0xCB1 JUMPI PUSH2 0xCB0 PUSH2 0xC5A JUMP JUMPDEST JUMPDEST DUP1 PUSH1 0x40 MSTORE POP POP POP JUMP JUMPDEST PUSH1 0x0 PUSH2 0xCC4 PUSH2 0x9AF JUMP JUMPDEST SWAP1 POP PUSH2 0xCD0 DUP3 DUP3 PUSH2 0xC89 JUMP JUMPDEST SWAP2 SWAP1 POP JUMP JUMPDEST PUSH1 0x0 PUSH8 0xFFFFFFFFFFFFFFFF DUP3 GT ISZERO PUSH2 0xCF0 JUMPI PUSH2 0xCEF PUSH2 0xC5A JUMP JUMPDEST JUMPDEST PUSH2 0xCF9 DUP3 PUSH2 0xB8A JUMP JUMPDEST SWAP1 POP PUSH1 0x20 DUP2 ADD SWAP1 POP SWAP2 SWAP1 POP JUMP JUMPDEST DUP3 DUP2 DUP4 CALLDATACOPY PUSH1 0x0 DUP4 DUP4 ADD MSTORE POP POP POP JUMP JUMPDEST PUSH1 0x0 PUSH2 0xD28 PUSH2 0xD23 DUP5 PUSH2 0xCD5 JUMP JUMPDEST PUSH2 0xCBA JUMP JUMPDEST SWAP1 POP DUP3 DUP2 MSTORE PUSH1 0x20 DUP2 ADD DUP5 DUP5 DUP5 ADD GT ISZERO PUSH2 0xD44 JUMPI PUSH2 0xD43 PUSH2 0xC55 JUMP JUMPDEST JUMPDEST PUSH2 0xD4F DUP5 DUP3 DUP6 PUSH2 0xD06 JUMP JUMPDEST POP SWAP4 SWAP3 POP POP POP JUMP JUMPDEST PUSH1 0x0 DUP3 PUSH1 0x1F DUP4 ADD SLT PUSH2 0xD6C JUMPI PUSH2 0xD6B PUSH2 0xC50 JUMP JUMPDEST JUMPDEST DUP2 CALLDATALOAD PUSH2 0xD7C DUP5 DUP3 PUSH1 0x20 DUP7 ADD PUSH2 0xD15 JUMP JUMPDEST SWAP2 POP POP SWAP3 SWAP2 POP POP JUMP JUMPDEST PUSH1 0x0 DUP1 PUSH1 0x0 PUSH1 0x60 DUP5 DUP7 SUB SLT ISZERO PUSH2 0xD9E JUMPI PUSH2 0xD9D PUSH2 0x9B9 JUMP JUMPDEST JUMPDEST PUSH1 0x0 DUP5 ADD CALLDATALOAD PUSH8 0xFFFFFFFFFFFFFFFF DUP2 GT ISZERO PUSH2 0xDBC JUMPI PUSH2 0xDBB PUSH2 0x9BE JUMP JUMPDEST JUMPDEST PUSH2 0xDC8 DUP7 DUP3 DUP8 ADD PUSH2 0xD57 JUMP JUMPDEST SWAP4 POP POP PUSH1 0x20 PUSH2 0xDD9 DUP7 DUP3 DUP8 ADD PUSH2 0x9E4 JUMP JUMPDEST SWAP3 POP POP PUSH1 0x40 PUSH2 0xDEA DUP7 DUP3 DUP8 ADD PUSH2 0xA6F JUMP JUMPDEST SWAP2 POP POP SWAP3 POP SWAP3 POP SWAP3 JUMP JUMPDEST PUSH1 0x0 PUSH1 0xA0 DUP3 ADD SWAP1 POP PUSH2 0xE09 PUSH1 0x0 DUP4 ADD DUP9 PUSH2 0xAE7 JUMP JUMPDEST PUSH2 0xE16 PUSH1 0x20 DUP4 ADD DUP8 PUSH2 0xAE7 JUMP JUMPDEST PUSH2 0xE23 PUSH1 0x40 DUP4 ADD DUP7 PUSH2 0xAE7 JUMP JUMPDEST PUSH2 0xE30 PUSH1 0x60 DUP4 ADD DUP6 PUSH2 0xAE7 JUMP JUMPDEST PUSH2 0xE3D PUSH1 0x80 DUP4 ADD DUP5 PUSH2 0xB11 JUMP JUMPDEST SWAP7 SWAP6 POP POP POP POP POP POP JUMP JUMPDEST PUSH32 0x4E487B7100000000000000000000000000000000000000000000000000000000 PUSH1 0x0 MSTORE PUSH1 0x32 PUSH1 0x4 MSTORE PUSH1 0x24 PUSH1 0x0 REVERT JUMPDEST PUSH32 0x4E487B7100000000000000000000000000000000000000000000000000000000 PUSH1 0x0 MSTORE PUSH1 0x12 PUSH1 0x4 MSTORE PUSH1 0x24 PUSH1 0x0 REVERT JUMPDEST PUSH32 0x4E487B7100000000000000000000000000000000000000000000000000000000 PUSH1 0x0 MSTORE PUSH1 0x11 PUSH1 0x4 MSTORE PUSH1 0x24 PUSH1 0x0 REVERT JUMPDEST PUSH1 0x0 PUSH2 0xEDF DUP3 PUSH2 0x9C3 JUMP JUMPDEST SWAP2 POP PUSH2 0xEEA DUP4 PUSH2 0x9C3 JUMP JUMPDEST SWAP3 POP DUP3 PUSH2 0xEFA JUMPI PUSH2 0xEF9 PUSH2 0xE76 JUMP JUMPDEST JUMPDEST DUP3 DUP3 DIV SWAP1 POP SWAP3 SWAP2 POP POP JUMP JUMPDEST PUSH32 0x4E487B7100000000000000000000000000000000000000000000000000000000 PUSH1 0x0 MSTORE PUSH1 0x22 PUSH1 0x4 MSTORE PUSH1 0x24 PUSH1 0x0 REVERT JUMPDEST PUSH1 0x0 PUSH1 0x2 DUP3 DIV SWAP1 POP PUSH1 0x1 DUP3 AND DUP1 PUSH2 0xF4C JUMPI PUSH1 0x7F DUP3 AND SWAP2 POP JUMPDEST PUSH1 0x20 DUP3 LT DUP2 EQ ISZERO PUSH2 0xF60 JUMPI PUSH2 0xF5F PUSH2 0xF05 JUMP JUMPDEST JUMPDEST POP SWAP2 SWAP1 POP JUMP JUMPDEST PUSH1 0x0 PUSH2 0xF71 DUP3 PUSH2 0x9C3 JUMP JUMPDEST SWAP2 POP PUSH32 0xFFFFFFFFFFFFFFFFFFFFFFFFFFFFFFFFFFFFFFFFFFFFFFFFFFFFFFFFFFFFFFFF DUP3 EQ ISZERO PUSH2 0xFA4 JUMPI PUSH2 0xFA3 PUSH2 0xEA5 JUMP JUMPDEST JUMPDEST PUSH1 0x1 DUP3 ADD SWAP1 POP SWAP2 SWAP1 POP JUMP INVALID LOG2 PUSH5 0x6970667358 0x22 SLT KECCAK256 0xA7 SGT SWAP13 NOT DUP5 0xC4 0xF7 0xC 0xC8 0xD4 MULMOD DUP15 0x2F SDIV BASEFEE STATICCALL 0xAF ADD EXTCODESIZE 0xDB GT PUSH2 0xE728 PUSH7 0x419210B4394502 PUSH5 0x736F6C6343 STOP ADDMOD MULMOD STOP CALLER "},"gasEstimates":{"creation":{"codeDepositCost":"813800","executionCost":"infinite","totalCost":"infinite"},"external":{"approveRequest(uint256)":"infinite","approvers(address)":"2868","approversCount()":"2429","contribute()":"51024","createRequest(string,uint256,address)":"infinite","description()":"infinite","finalizeRequest(uint256)":"infinite","getDetails()":"infinite","getRequestCount()":"2490","manager()":"2581","minimumContribution()":"2473","requests(uint256)":"infinite"}},"methodIdentifiers":{"approveRequest(uint256)":"d7d1bbdb","approvers(address)":"0a144391","approversCount()":"82fde093","contribute()":"d7bb99ba","createRequest(string,uint256,address)":"8a9cfd55","description()":"7284e416","finalizeRequest(uint256)":"03441006","getDetails()":"fbbf93a0","getRequestCount()":"3fad1834","manager()":"481c6a75","minimumContribution()":"937e09b1","requests(uint256)":"81d12c58"}},"storageLayout":{"storage":[{"astId":62,"contract":"Campaign.sol:Campaign","label":"description","offset":0,"slot":"0","type":"t_string_storage"},{"astId":66,"contract":"Campaign.sol:Campaign","label":"requests","offset":0,"slot":"1","type":"t_array(t_struct(Request)60_storage)dyn_storage"},{"astId":68,"contract":"Campaign.sol:Campaign","label":"manager","offset":0,"slot":"2","type":"t_address"},{"astId":70,"contract":"Campaign.sol:Campaign","label":"minimumContribution","offset":0,"slot":"3","type":"t_uint256"},{"astId":74,"contract":"Campaign.sol:Campaign","label":"approvers","offset":0,"slot":"4","type":"t_mapping(t_address,t_bool)"},{"astId":76,"contract":"Campaign.sol:Campaign","label":"approversCount","offset":0,"slot":"5","type":"t_uint256"}],"types":{"t_address":{"encoding":"inplace","label":"address","numberOfBytes":"20"},"t_array(t_struct(Request)60_storage)dyn_storage":{"base":"t_struct(Request)60_storage","encoding":"dynamic_array","label":"struct Campaign.Request[]","numberOfBytes":"32"},"t_bool":{"encoding":"inplace","label":"bool","numberOfBytes":"1"},"t_mapping(t_address,t_bool)":{"encoding":"mapping","key":"t_address","label":"mapping(address => bool)","numberOfBytes":"32","value":"t_bool"},"t_string_storage":{"encoding":"bytes","label":"string","numberOfBytes":"32"},"t_struct(Request)60_storage":{"encoding":"inplace","label":"struct Campaign.Request","members":[{"astId":47,"contract":"Campaign.sol:Campaign","label":"description","offset":0,"slot":"0","type":"t_string_storage"},{"astId":49,"contract":"Campaign.sol:Campaign","label":"value","offset":0,"slot":"1","type":"t_uint256"},{"astId":51,"contract":"Campaign.sol:Campaign","label":"recipient","offset":0,"slot":"2","type":"t_address"},{"astId":53,"contract":"Campaign.sol:Campaign","label":"complete","offset":20,"slot":"2","type":"t_bool"},{"astId":55,"contract":"Campaign.sol:Campaign","label":"approvalCount","offset":0,"slot":"3","type":"t_uint256"},{"astId":59,"contract":"Campaign.sol:Campaign","label":"approvals","offset":0,"slot":"4","type":"t_mapping(t_address,t_bool)"}],"numberOfBytes":"160"},"t_uint256":{"encoding":"inplace","label":"uint256","numberOfBytes":"32"}}},"userdoc":{"kind":"user","methods":{},"version":1}}